:100000000C945D030C94A4030C94A4030C94810C35
:100010000C94A4030C94A4030C94A4030C94A403C4
:100020000C94A4030C94A4030C948F210C946122CF
:100030000C942A1A0C94A4030C94A4030C94A40307
:100040000C94A4030C94A4030C94A4030C94A40394
:100050000C94A4030C94771A0C94A4030C94A4039A
:100060000C94A4030C94A4030C94A4030C94A40374
:100070000C94A4030C94A4030C94A4030C94A40364
:100080000C94A4030C94A4030C94A4030C94A40354
:100090000C94A4030C94A4030C94A4030C94A40344
:1000A0000C94A4030C94A4030C94A40309040F045B
:1000B00019042A041704470450046004A90FA90F67
:1000C000DB0FDB0F80112810801180116A10FF10E8
:1000D000101110117011801180117911181218125D
:1000E0002A122A1221122A122A122A12181218125D
:1000F00026122A122A122612CE22F522ED23F522EA
:10010000ED2341236423ED23BB23CA230102E260D4
:100110000103E2000102E2600103E2003602220074
:10012000210020001F001E002900E2002502170008
:10013000150008001A0014002B00E30030000A002C
:1001400009000700160004000C5D4900300205009C
:10015000190006001B001D0001004A000A5D2C006A
:10016000E100E0008B0000000000000037022300E7
:1001700024002500260027002D004C0026021C002C
:1001800018000C00120013002F002A0032000B0090
:100190000D000E000F003300340028003202110061
:1001A000100036003700380087004D000B5D2A0034
:1001B00028004C008A0000000000000036022200E7
:1001C000210020001F001E002900E20025020A0075
:1001D000090007001A0014002B00E30030000C0097
:1001E00018000800120004000C5D490030020500F0
:1001F000190006001B001D0001004A000A5D2C00CA
:10020000E100E0008B000000000000003702230046
:1002100024002500260027002D004C0026021C008B
:1002200016001700150013002F002A0032000B00E3
:100230000D000E000F0033003400280032021100C0
:10024000100036003700380087004D000B5D2A0093
:1002500028004C008A0000000000000001003E0061
:100260003D003C003B003A0001000100010001009C
:10027000010001000100010001000100DE5C085DD9
:10028000010001000100010001000100005C095DA6
:100290000100010001000100010001000100E10076
:1002A0002C00E000010000000000000001003F0001
:1002B00040004100420043004400450001000100AD
:1002C00001000100010001000100010001005000D7
:1002D000510052004F000100010001000100010027
:1002E0000100010001000100010001000100010006
:1002F00001000100010000000000000001003E00BC
:100300003D003C003B003A000100010001000100FB
:10031000010001000100010001000100DE5C085D38
:10032000010001000100010001000100005C095D05
:100330000100010001000100010001000100E100D5
:100340002C00E000010000000000000001003F0060
:10035000400041004200430044004500010001000C
:10036000F400F600F500F900010001000100F200C0
:10037000F100F000F300FA0001000100010050005C
:10038000510052004F000100010001000100010076
:100390000100010001000000000000000100010058
:1003A0000100010001000100010001000100010045
:1003B0000100010001000100010001000100010035
:1003C0000100010001000100010001000100010025
:1003D0000100010001000100010001000100010015
:1003E0000100010001000000000000000100010008
:1003F00001000100010001000100010001000100F5
:1004000001000100010001000100010001000100E4
:1004100001000100010001000100010001000100D4
:1004200001000100010001000100010001000100C4
:100430000100010001000000000000000100220096
:10044000210020001F001E002900E20001002F02F1
:1004500024021F0287022E022B00E3000100340059
:100460002D0234022D003302010049000100220256
:100470002102200238021E0201004A000A5DE1004A
:100480002C00E0000E5D00000000000001002300D1
:10049000240025002600270001004C000100230253
:1004A000250236023002300001002A0001008902D4
:1004B000260237023202320001002800010001004A
:1004C0002F002E003600010001004D000B5D2A00B8
:1004D00028004C000F5D000000000000000000003C
:1004E000000000002A2B280000000000000000008F
:1004F0000000000000000029000000002C1E342035
:10050000212224342627252E362D3738271E1F205A
:100510002122232425263333362E37381F0405069F
:100520000708090A0B0C0D0E0F10111213141516E3
:100530001718191A1B1C1D2F3130232D35040506E1
:100540000708090A0B0C0D0E0F10111213141516C3
:100550001718191A1B1C1D2F3130354C00000000D4
:10056000000000000000000000000000000000008B
:100570007E0F00D4FFFFFFC70000007804033000A7
:1005800000000E03480069006E006F006400650003
:1005900000000A03780063006400300000000403D8
:1005A000090409023B00020100A0FA09040000014D
:1005B000030101000921110100012240000705810A
:1005C0000308000A090401000103000000092111C9
:1005D000010001228A000705820320000A1201108F
:1005E000010000000865320000010001020301055E
:1005F000010902A10185020901A1000509190129CA
:100600000515002501950575018102950175038188
:10061000010501093009311581257F950275088191
:100620000609381581257F950175088106050C0A94
:1006300038021581257F950175088106C0C0050126
:100640000906A1018505050719E029E7150025011F
:100650009508750181020507190029EF150025018C
:1006600095F07501810205081901290595057501A7
:100670009102950175039101C005010906A10105CB
:100680000719E029E71500250195087501810295F4
:1006900001750881010507190029FF150026FF00D3
:1006A000950675088100050819012905950575014C
:1006B0009102950175039101C00011241FBECFEF77
:1006C000DAE0DEBFCDBF04B603FE27C080914B0247
:1006D00090914C02A0914D02B0914E028730904B08
:1006E000A740B04BD1F410924B0210924C021092E2
:1006F0004D0210924E0214BE84B7877F84BF0FB69E
:10070000F894A895809160008861809360001092B1
:1007100060000FBEE0E0F8E3099511E0A0E0B1E071
:10072000E6E2F9E402C005900D92A033B107D9F7D3
:1007300022E0A0E3B1E001C01D92AB34B207E1F7C3
:100740000E94BE1E0C9491240C9400000E94560935
:10075000809330010C947B040C94000ECF93DF93B4
:10076000EC010E947C18BE0180E090E0DF91CF9107
:100770000C94E215CF92DF92EF92FF920F931F93AA
:1007800001E010E020E030E06801790104C0CC0C09
:10079000DD1CEE1CFF1C6A95D2F704C0000F111F70
:1007A000221F331F8A95D2F70C291D292E293F2994
:1007B0008091C0019091C101A091C201B091C3018B
:1007C00080239123A223B323081719072A073B0785
:1007D00049F4842F1F910F91FF90EF90DF90CF90FD
:1007E0000C944216842F1F910F91FF90EF90DF9091
:1007F000CF900C946316CF9388509D458830910517
:1008000008F075C0FB018A5A9F4FC281FC010C940D
:100810003524CC2309F46CC081E090E005C0CC23E2
:1008200009F466C082E090E00E94AE035AC085E001
:100830002FC0CC2349F080913101811103C081E0A8
:100840008093310182E010C01092310182E00E9459
:10085000631617C0CC2381F080913101811103C050
:1008600081E08093310183E00E94421644E063E01E
:1008700082E00E94BA0335C083E00E9463161092A2
:10088000310144E063E082E00E94BA0331C084E0B9
:10089000CC2319F00E94421624C00E94631628C07F
:1008A000CC2361F080913C0282FBCC27C0F982FD11
:1008B00002C081E90FC084E191E011C081E914C058
:1008C000CC2389F080913C0282FBCC27C0F982FDC9
:1008D00004C080E90E94E30E0BC08CE091E00E940E
:1008E0008505C0E005C080E90E941E0F01C0C1E07F
:1008F0008C2FCF910895089581E008950C94FB0307
:1009000008950C9480041F93CF93DF9300D000D000
:100910001F92CDB7DEB749835A836B83309155015F
:1009200089819A81311114C0662359F0222349F03C
:100930000E943717182F682F89819A810E94E0162C
:1009400003C00E940B17182F69817A81812F04C080
:100950000E94371769817A810F900F900F900F9046
:100960000F90DF91CF911F910C94F305FC01262F7E
:10097000408151816281738184810C948304CF937F
:10098000DF93EC0160E00E94B604BE01DF91CF91DD
:100990000C948104FF920F931F93CF93DF93E82F62
:1009A000F0E0E452FB4FF490C82FC695C695C6956B
:1009B000D0E0FE01E459FA4F0491877010E0082E50
:1009C00002C0159507950A94E2F701701127FE0100
:1009D000E45AFA4FC491D0E002C0D595C7958A95E4
:1009E000E2F7C170DD270115110519F081EE0E94B3
:1009F000E30E209719F086EE0E94E30E8F2D0E94E1
:100A0000520FCD2B19F086EE0E941E0F012B41F0E4
:100A100081EEDF91CF911F910F91FF900C941E0FEB
:100A2000DF91CF911F910F91FF900895EF92FF9268
:100A30000F931F93CF93DF938C01F62E8AE0E82E5D
:100A4000F8018491882309F459C0813009F044C029
:100A5000E8012196FE018491813041F42196FE0146
:100A60001491812F0E94E30E812F0FC0823039F440
:100A7000E8012296FE0184910E94E30E30C083308B
:100A800039F4E8012296FE0184910E941E0F27C0CE
:100A9000843029F5E8012296FE01249180E090E05F
:100AA00030E0205331092A30310560F4E89EA0017E
:100AB000E99E500D1124C901840F951F2196FE0156
:100AC0002491EECF009759F0EFE9FFE03197F1F76D
:100AD00000C000000197F6CF0E94CA04E8018E0111
:100AE0000F5F1F4F8F2D882309F4AACFEFE9FFE096
:100AF0003197F1F700C000008150F5CFDF91CF9121
:100B00001F910F91FF90EF90089560E00C941605EF
:100B10000E946918811102C00E940E190C94A6034C
:100B20000C94F70708950C94920581E008950C94B5
:100B30009505CF93C82F0E9493058C2F0E9497058F
:100B4000CF91089508950E9406120E94A2052FEFEA
:100B500084E39CE0215080409040E1F700C0000019
:100B60000C949D1A0F931F93CF93DF93EC0161E0D8
:100B70000E94B6048C01BE010E947E04882349F1C4
:100B8000BE01C8010E94320A882319F1BE01C801C2
:100B90000E94730A8823E9F0BE01C8010E949E0BDF
:100BA0008823B9F08A81882369F001158CE518073C
:100BB00031F00E3D1C4531F40E940E190AC00E940E
:100BC000A30507C0CE01DF91CF911F910F910C9427
:100BD0007C0480E0DF91CF911F910F91089580E018
:100BE00090E008950895E72FF0E09AE0899FE00DE6
:100BF000F11D112483E0EE0FFF1F8A95E1F7E60F48
:100C0000F11DEE0FFF1FE45EFE4F85919491089554
:100C1000880F991FFC01E458FA4F8591949108952B
:100C2000CF93DF930E94F3050E941207EC01811518
:100C300021E59207B8F5811540E5940708F08BC0CF
:100C40008F3F910509F0E0F4803F910508F06EC0F8
:100C5000803E910580F4803C910508F069C08130A8
:100C6000910509F4DBC008F4D7C00497813A9105D7
:100C700008F4D4C0D1C0883E910508F4CFC0CCC0E0
:100C8000C11580E3D80740F4C11520E2D20708F46B
:100C9000C5C0CE019F704EC0C11540E4D40708F016
:100CA00057C04CC0C11585E5D807A0F4C11524E58F
:100CB000D20708F097C0C11543E5D40708F07CC0FF
:100CC000C11582E5D80708F061C0DC2FCC27C16FC1
:100CD000D06AA4C0C11529E5D207A0F4C11548E522
:100CE000D40708F084C0C11586E5D80708F094C081
:100CF0008C2F0E94A6078F71C82FD0E0DC2FCC2745
:100D0000D0628CC0C1152AE5D20708F475C0CE01A7
:100D100090568115904208F07FC08D2F8F710E94F0
:100D2000A607DD27D0628F71D82B78C0D06576C03A
:100D3000805C91090E940806EC0170C0CE019927E1
:100D4000D3FF03C0EC01D86C69C0EC01D06C66C065
:100D5000DF70D06A63C074E0969587957A95E1F765
:100D600083709C2F937021E030E002C0220F331F6C
:100D70009A95E2F73C68382BCF70C695C69580E20D
:100D8000C89FE0011124C22BD32B48C0CE01837031
:100D9000992721E030E002C0220F331F8A95E2F745
:100DA0008C2F8695869540E2849FC0011124E9012D
:100DB000C82BD92BDC6832C0CE018370992721E083
:100DC00030E002C0220F331F8A95E2F78C2F869500
:100DD000869540E2849FC0011124E901C82BD92BDC
:100DE000DA681CC0DC2FCC27C46FD06A17C0DC2F98
:100DF000CC27C06FD06A12C08C2F8F700E94A607BC
:100E000094E0D695C7959A95E1F7CF70D0E0DC2FA6
:100E1000CC27D069C82B02C0C0E0D0E0CE01DF9162
:100E2000CF9108958238910569F1B0F4813391052D
:100E300009F46DC048F48932910509F463C08A321F
:100E4000910509F469C008958533910509F455C0E9
:100E500089339105B9F00895833E910569F138F41D
:100E6000803E9105B1F0823E910509F10895863EDC
:100E70009105A9F1873E9105B9F1843E910509F0EC
:100E800064C023C020913C0220FD4FC021FD4DC015
:100E9000089580913C0280FD44C080913D0280FF16
:100EA00044C080913C0284FD42C083EE4DC08091DD
:100EB0003C0282FF38C0F5CF80913C0282FD33C0F6
:100EC00080913D0280FD31C0ECCF80913D0281FFD9
:100ED00032C080913C0284FD2AC087EE35C08091EB
:100EE0003C0283FF26C0F5CF80913C0283FD21C0E8
:100EF00080913D0281FD1FC0ECCF80913C0285FDB9
:100F00001CC01DC080913C0285FD19C016C0809197
:100F10003C0286FD16C017C080913C0286FD13C0BE
:100F200010C089E311C082EE0FC080EE0DC080E0DA
:100F30000BC086EE09C084EE07C089E205C085E3D8
:100F400003C08AE201C081E390E0089590913C02E1
:100F500092FF0DC0282F2871283019F4877F8460F4
:100F600006C0282F2471243011F48B7F886093FFF2
:100F70000DC0282F2871283119F4877E846106C09E
:100F8000282F2471243111F48B7E886120913D0239
:100F900020FF0DC0382F3871383019F4877F8160F9
:100FA00006C0382F3171313011F48E7F886021FFF7
:100FB0000DC0282F2871283119F4877E816106C061
:100FC000282F2171213111F48E7E886194FD877E56
:100FD0000895E82FF0E0E65DFD4F808108950895C3
:100FE00080EA8A95F1F7089508950C94F4070C941B
:100FF000F5070895CF93DF930E9475098091000152
:1010000080910001811102C095E001C090E09093B1
:10101000350285E0891B80933402AEE1B1E046E2FF
:1010200051E061E070E08D91E82FE295EF70F0E023
:1010300021A18F70EB0102C0CC0FDD1F8A95E2F772
:10104000CE019C2F9095922391A392A1892B82A3EC
:101050004A175B0741F7A6E2B1E04BE251E061E0DD
:1010600070E08D91E82FE295EF70F0E021A18F7094
:10107000EB0102C0CC0FDD1F8A95E2F7CE019C2F59
:101080009095922391A392A1892B82A34A175B0783
:1010900041F7E0E2F2E0AAE2B2E08AE292E01192E5
:1010A0001D928E179F07D9F785E00E941F090E94A5
:1010B0008805DF91CF910C947F090E9456098823FF
:1010C00009F18091340290E0865D9D4F0E94920963
:1010D000811114C0809132018F5F8093320186307C
:1010E00078F0E0913402F0E0E65DFD4F80E090E0C2
:1010F0001192019685309105D9F702C01092320104
:101100000C9490058091350290E0865D9D4F0E9481
:10111000AF090C94F9074F925F926F927F928F9272
:101120009F92AF92BF92CF92DF92EF92FF920F9376
:101130001F93CF93DF939EE1C92E91E0D92EE12C2E
:10114000F12C712C88248394912C35E2A32E32E06B
:10115000B32ED6018D916D01C82FC295CF70D0E00E
:1011600099A18F70840101C0000F8A95EAF7892F39
:10117000802B89A38AA1602E609486218AA30E9475
:10118000F00794010E2C01C0220F0A94EAF7622F97
:101190002095E0E2F2E086E2482E81E0582E40E021
:1011A0005081D2013D912D01832F82958F7090E067
:1011B000DC0190968C9190E03F7002C095958795E8
:1011C0003A95E2F780FD03C0852F862B02C0852F5C
:1011D0008223581711F0808341E03196AE16BF0686
:1011E000F9F689A1682269A28AA1082B0AA3742AA8
:1011F000BFEFEB1AFB0AE8E0EE16F10409F0A9CF05
:101200006091350270E0665D7D4F272D45E080E2FC
:1012100092E00E9420090E945D08872DDF91CF9106
:101220001F910F91FF90EF90DF90CF90BF90AF9004
:101230009F908F907F906F905F904F90089508954A
:10124000FF920F931F93CF93DF938C01F62ED72F2E
:10125000C42F222349F081E0809335010E945C1A5B
:101260009093340180933301809135018823C1F03C
:1012700080913301909134010E94681A069780F0A2
:10128000EF2DFD2FD8014C2F50E0CD01801B910B8D
:10129000841795071CF48D918193F7CF1092350137
:1012A000DF91CF911F910F91FF90089580913601AA
:1012B000811112C08091D80080618093D8008AE1AA
:1012C0008A95F1F700C08091D90080FD02C082E0CC
:1012D00001C081E08093360181E090913601913028
:1012E00009F080E008950C9456090E9473098093D8
:1012F00000010E94560981110C94860908950E94EC
:101300005609811102C00C948C09089561E070E0C7
:1013100081E091E00C942F0C61E070E081E091E0BD
:101320000C94380CCF93DF93D82FC92F80E090E036
:101330000E94110D892B79F4ED2FFC2F80E090E0B5
:10134000DC01A85CBE4F2C9121930196853091055C
:10135000B9F781E001C080E0DF91CF91089520E0EE
:1013600030E0FC014191CF01F901E85CFE4F408380
:101370002F5F3F4F25303105A1F708950F931F933D
:10138000CF93DF93C62FD42F122FFC0182818823A5
:10139000C9F060933F010E945C1A90933E018093D4
:1013A0003D0180E28C0F883008F057C0C77081E0A3
:1013B00001C0880FCA95EAF7DF91CF911F910F9175
:1013C0000C94650F80913F01681330C080913D01FE
:1013D00090913E010E94681A8436910538F500E22A
:1013E0000D0FCD17B9F080E28C0F883040F4C77034
:1013F00081E001C0880FCA95EAF70E946C0F08309F
:1014000028F581E09D2F977001C0880F9A95EAF723
:101410000E94650F812F0E94520F0830F0F4D770A0
:1014200081E001C0880FDA95EAF70AC080E28C0FEC
:10143000883098F4C77081E001C0880FCA95EAF738
:10144000DF91CF911F910F910C946C0F812FDF9141
:10145000CF911F910F910C94520FDF91CF911F915B
:101460000F9108959C01CB01233F4CE53407F9F01F
:1014700078F4283DFCE53F07B9F0293D4CE53407F9
:1014800011F1273D3C4531F526E241EE61EE1EC0EB
:10149000253FFCE53F0799F070F0263F3C45D1F42D
:1014A00027E245EE66EE12C027E245EE0EC026E2C8
:1014B00041EE60EE0BC027E245EE64EE07C026E287
:1014C00041EE62EE03C028E241E065EE0E94BE09F3
:1014D00080E00895FC018281882319F010923F0179
:1014E000089581E00895CF93DF93EC01FB018281A1
:1014F000882309F41FC1C230FCE5DF0708F41BC1D3
:10150000C6319CE5D90738F09E012A5F3C45293059
:10151000310508F010C10E94811890933D0280931C
:101520003C02C031ECE5DE0709F4C3C008F041C05D
:10153000C8308CE5D80709F49AC0F0F4C430ECE563
:10154000DE0709F487C068F4C2308CE5D80709F4D7
:1015500077C0C330DC4509F0E3C080913C02826073
:1015600076C0C630ECE5DE0709F46EC008F07BC03B
:1015700080913C0288606BC0CC308CE5D80709F4C0
:1015800085C068F4CA30ECE5DE0709F474C008F0E1
:1015900079C00E94061280913C02806858C0CE300B
:1015A0008CE5D80709F476C008F07FC080913C0232
:1015B0008BC0CB3FECE5DE0709F44FC018F5C33113
:1015C0008CE5D80709F47DC078F4C131ECE5DE077D
:1015D00009F473C0C231DC4509F0A2C00E940612B2
:1015E00080913C028F7733C0C5318CE5D80709F470
:1015F00072C008F486C0CA3FDC4509F091C08091F2
:101600003D023EC0CF3FFCE5DF0709F45FC058F460
:10161000CD3F9CE5D90709F444C008F43FC0809150
:101620003D0282602DC0C130FDE5DF0709F475C0C1
:1016300008F45DC0C230DD4509F072C080E06EC0C4
:1016400080913C02816003C080913C028061809364
:101650003C0266C080913C0211C080913D028260D4
:1016600080933D025DC080913C028062F0CF80910A
:101670003C028064ECCF80913C0288608460E7CFBC
:101680008160EECF80913C028E7FE1CF80913C0261
:101690008D7FDDCF80913C02877FD9CF80913D0245
:1016A00018C080913D028D7FDBCF80913C028F7E00
:1016B000CECF80913C028F7DCACF80913C028F7B40
:1016C000C6CF80913C02877F8B7FC1CF80913D0246
:1016D0008D7F8E7FC5CF80913C0282FB222720F92F
:1016E00091E0922790FB82F990FB83F9B0CF809133
:1016F0003D02982F909591708E7F892B90FB81F9F8
:10170000AFCF0E94061280913C0287FB222720F96E
:1017100091E0922790FB87F99ACF81E00E941019FF
:1017200080913C0290913D020E9492180E94061204
:1017300080E001C081E0DF91CF910895CF93DF93E6
:1017400086319C4541F5EB010E94B817982F8A819C
:101750002091090130910A01882379F09A7A81E079
:1017600009F480E080934001911102C069E201C058
:1017700065E3C9010E94AB190AC080914001811143
:1017800002C069E201C065E3C9010E94B6190E9466
:10179000061880E001C081E0DF91CF9108958EE1CD
:1017A0004A9B02C08150E1F74A9BFECF08955A98A8
:1017B00080E28A95F1F75A9A0895FC012AE02A9569
:1017C000F1F790E020E080E031E0261779F040E189
:1017D0004A95F1F7880F4A9B02C08160932700C0A9
:1017E000000040E14A95F1F72F5FEFCF20E12A9505
:1017F000F1F729B100C0000030E13A95F1F722FB82
:10180000222720F992272081920F90830895EF924A
:10181000FF920F931F93CF93DF931F92CDB7DEB745
:1018200019828C017C01E60EF11C0E151F0559F082
:101830000E94CF0B68E0CE0101960E94DD0BF801FB
:1018400081938F01F2CF81E09981911180E00F9017
:10185000DF91CF911F910F91FF90EF90089590939A
:1018600043018093420160934101529A5A9A08952C
:1018700090934301809342016093410152985A9A98
:10188000EA9AE9E6F0E080818F7C808308956150D8
:1018900091E001C0990F6A95EAF720E031E09923C1
:1018A00061F0492F482319F05A9A232701C05A980A
:1018B00040E24A95F1F79695F2CF222311F05A9A19
:1018C00001C05A9880E28A95F1F75A980895FF92DC
:1018D0000F931F93CF93DF93EC018C01060F111D23
:1018E000C017D10741F0F9900E94D70B68E08F2D07
:1018F0000E94470CF5CFDF91CF911F910F91FF9080
:1019000008951F920F920FB60F9211240F931F93F9
:101910002F933F934F935F936F937F938F939F93F7
:10192000AF93BF93EF93FF93CF93DF931F92CDB706
:10193000DEB719820E94CF0B67E0CE0101960E94AC
:10194000DD0B382F369536953695932F96959570F5
:10195000232F2570920F292F2370969596958770C7
:10196000920F891348C08981811145C0809141013E
:10197000831708F440C080E18A95F1F75A9A529A89
:10198000A2E0AA95F1F700C0009142011091430135
:10199000B8E03B9F000D111D11245A98F801658194
:1019A000662321F0868197810E94670C0E94D70BE5
:1019B000F0E1FA95F1F75A9852985A9A80E18A958F
:1019C000F1F7D80112966C911297662369F013967D
:1019D0008D919C9114970E94070CD801ED91FC9178
:1019E000811105C082E004C0D801ED91FC9188E02E
:1019F00080830E94CF0B0F90DF91CF91FF91EF91E9
:101A0000BF91AF919F918F917F916F915F914F9116
:101A10003F912F911F910F910F900FBE0F901F902C
:101A200018950F931F93CF93DF932091410130E0DE
:101A3000281739070CF471C09C0193E0220F331F63
:101A40009A95E1F7C0914201D0914301C20FD31F93
:101A5000F894529A5A9845E04A95F1F70000982F69
:101A6000969595708570890F982F937086958695B9
:101A7000890F8901082B0E94D70B84E08A95F1F722
:101A800000C067E0802F0E94470C40E14A95F1F7C3
:101A900052985A9A4A9902C000C0FCCF87E090E061
:101AA0004A9B0EC0019751F4529A5A9AE881F981E3
:101AB00081E08083789481E090E031C000C0F0CF75
:101AC0006D81662381F08E819F810E94070C8111B8
:101AD0000AC0529A5A9AE881F98182E08083789408
:101AE00082E090E01CC00E94CF0B80E28A95F1F763
:101AF0005A98529A40E14A95F1F76A81662321F09B
:101B00008B819C810E94670C0E94D70BE881F98130
:101B10001082789480E090E002C084E090E0DF9151
:101B2000CF911F910F91089590934901809348019F
:101B30000895E0914801F0914901309721F001901A
:101B4000F081E02D099480E00895E0914801F09142
:101B50004901309799F020911D01222359F02091DD
:101B60003C0227FF07C0DC012C9111962C931197A2
:101B700025E02C930280F381E02D09940895E091F3
:101B80004801F0914901309739F022E0DC012C93B3
:101B90000480F581E02D099408952091460130914B
:101BA00047012817390771F0909347018093460148
:101BB000E0914801F0914901309721F00680F781CA
:101BC000E02D099408952091440130914501281792
:101BD000390771F09093450180934401E0914801E9
:101BE000F0914901309721F00084F185E02D0994AE
:101BF000089585B7806885BF85B7806885BF0895DB
:101C000008950C94000E0C94010E0C94000E0E948A
:101C1000F90D0E94050E0C94030E0C9456090E94B7
:101C2000531A0E94FA070E94AE1A0C94AC03AF92AA
:101C3000BF92CF92DF92EF92FF920F931F93CF93B9
:101C4000DF93CDB7DEB72A970FB6F894DEBF0FBE8D
:101C5000CDBF0E948B080E940D0E811111C08FEF25
:101C600089838A831B820E945C1A8160782F9D83FE
:101C70008C8349815A816B818D810E94AF0E40C057
:101C80008BE4A82E81E0B82E00E010E0C02E802F5B
:101C90000E94E907E82EF501D1905F01D82631F4C2
:101CA0000F5F1F4F0A30110589F7D9CF8091ED01E1
:101CB00081FD0E94EF0780E0FF24F3949D2D9F217A
:101CC000D1F08E83CF82EF2081E009F480E0888715
:101CD0000E945C1A8160782F9A8789874E815F8184
:101CE00068858A850E94AF0EF801E55BFE4F808112
:101CF000F826F08205C08F5FFF0C8830F9F6D0CF50
:101D00000E94401C0E94990D90914A018917B1F0E0
:101D10000E94990D80934A012A960FB6F894DEBF6F
:101D20000FBECDBFDF91CF911F910F91FF90EF902C
:101D3000DF90CF90BF90AF900C9499052A960FB684
:101D4000F894DEBF0FBECDBFDF91CF911F910F91F1
:101D5000FF90EF90DF90CF90BF90AF900895CF931A
:101D6000DF93CDB7DEB72B970FB6F894DEBF0FBE6B
:101D7000CDBF4F83588769877A878B87DE0111969D
:101D800086E0FD0111928A95E9F785E0FE0137961C
:101D900001900D928A95E1F749815A816B817C818E
:101DA0008D819E810E94A5142B960FB6F894DEBFFC
:101DB0000FBECDBFDF91CF910895FC01808191814D
:101DC0000E9479170895CF938823B1F1C82F8CEF23
:101DD0008C0F813AD0F46C2F8091090190910A0107
:101DE0000E942B19882349F06C2F80910901909152
:101DF0000A010E94B6190E9406186C2F80910901F1
:101E000090910A010E94AB190CC080E28C0F8830BF
:101E100058F4C77081E001C0880FCA95EAF70E94A4
:101E2000BB17CF910C940618C03F30F08C2F0E9446
:101E3000481BCF910C94351CCF910895882389F1CC
:101E40009CEF980F913A40F4682F8091090190918E
:101E50000A010E94B6190DC090E2980F983058F40C
:101E6000877091E001C0990F8A95EAF7892F0E9447
:101E7000C1170C9406189BE5980F933020F480E06E
:101E800090E00C94CD0D98E5980F973120F480E008
:101E900090E00C94E30D803F20F00E94B01B0C9466
:101EA000351C0895CF93C82F0E94E30EC93349F41F
:101EB0002FEF87EE93E0215080409040E1F700C083
:101EC00000008C2FCF910C941E0F882321F00E94CC
:101ED000BB170C9406180895882321F00E94C1179F
:101EE0000C9406180895CF92DF92EF92FF920F9311
:101EF0001F93CF93DF937C01062FC72FFC01158121
:101F000012951F70D281D1110E94D8170E94B1176B
:101F1000882399F0DD2389F08C2F807F803421F095
:101F200080E2800F883048F082E00E9450180E94C2
:101F3000B11791E0D82ED92601C0D12CCC2EC29455
:101F40008FE0C8228C2D90E0FC01E25AFF4F0C94E8
:101F500035248C2F807FCF70882311F0C295C07FED
:101F6000DD2399F0CC2309F4A6C180E2800F8830EC
:101F700010F0011104C08C2F0E94BB1703C08C2FDE
:101F80000E94CB170E94061896C1802F0E941E0F38
:101F9000CC2309F4B5C180E2800F883010F0011124
:101FA00004C08C2F0E94C11703C08C2F0E94D11730
:101FB0000E940618A5C18C2F807FCF70803211F04F
:101FC000C295C07F002319F00130C9F022C0DD2383
:101FD00071F0112341F0113031F40E94EB178C2B7A
:101FE0000E94F3178DC10E94EB178C2B1DC011238B
:101FF00019F0113009F484C10E94FC1725C0DD23BB
:1020000021F0163008F07CC10EC0153008F078C100
:102010001BC0DD2361F0112331F0F701858180FFC2
:102020004AC18F7085838C2F0E94650F69C111236F
:1020300059F0093309F050C1FFEF27EE83E0F1506A
:1020400020408040E1F746C18C2F0E946C0F58C1A0
:10205000DD23F9F0053F51F0063F71F0043FA9F48C
:10206000809136029091370281600BC080913602D8
:1020700090913702826005C08091360290913702BC
:1020800084609093370280933602802F0E94481B11
:102090001EC0053F51F0063F71F0043FA9F4809146
:1020A0003602909137028E7F0BC08091360290915C
:1020B00037028D7F05C080913602909137028B7F69
:1020C0009093370280933602802F0E94B01B0E94AB
:1020D000351C1EC18C2F837009F045C0D11114C16D
:1020E000402F429546954770440F440F602F6F7004
:1020F000862F90E0A0E0B0E0042E04C0880F991F66
:10210000AA1FBB1F0A94D2F704FF10C00FE010E013
:1021100020E030E004C0000F111F221F331F4A953A
:10212000D2F7009510952095309503C000E010E09F
:102130009801C695C695C370BC01CD01602B712B6B
:10214000822B932BC23049F058F4C13019F00E9411
:10215000F615DAC00E94E415D7C00E940816D4C054
:102160000E94E215D1C0DD2319F08C2F817001C0CF
:102170008695882309F4C8C0402F4295469547703C
:10218000440F440F602F6F70862F90E0A0E0B0E006
:10219000042E04C0880F991FAA1FBB1F0A94D2F7F0
:1021A00004FF10C00FE010E020E030E004C0000F9A
:1021B000111F221F331F4A95D2F7009510952095C5
:1021C000309503C000E010E09801C695C695C37035
:1021D000BC01CD01602B712B822B932BC23049F0B7
:1021E00058F4C13019F00E94BB168EC00E94A91687
:1021F0008BC00E94CD1688C00E941C1685C0CF706F
:10220000DD2339F08C2F0E944216802F0E94650F2B
:102210007BC0802F0E946C0F8C2F0E94631674C0AD
:10222000023F01F128F4003F41F0013FA1F03FC01F
:10223000033FF9F0043F39F13AC0DD2341F0153096
:1022400008F05EC08C2F8F710E94881659C016301E
:1022500008F056C0F7CFDD2339F08C2F8F710E9424
:1022600042164EC0DD23C9F38C2F8F710E94631676
:1022700047C0DD2329F08C2F8F710E942D1640C09E
:102280000E9428163DC0DD2349F0CF718C2F0E949B
:10229000421663E08C2F0E943B1832C081E00E94FE
:1022A0005018123068F182E00E94501829C0DD23D6
:1022B00031F0112391F2802F0E94E30E21C01123EF
:1022C00099F2093349F49FEFE7EEF3E09150E040D3
:1022D000F040E1F700C00000802F0E941E0F10C0E8
:1022E0004C2F4F70602FC7010E94EF050E945315BD
:1022F0000FC04C2F4F70602FC7010E94F20508C01D
:1023000088EF8C0D843020F40E94990D0E9499056D
:10231000DD20C9F00E94AD1780FD15C0F7011282C3
:102320000E94A7170E944216C7010E94C4110E9472
:10233000A717DF91CF911F910F91FF90EF90DF9042
:10234000CF900C946316DF91CF911F910F91FF9066
:10235000EF90DF90CF9008950F931F93CF93DF936B
:10236000EC01688179818A810E9484178C010E9426
:10237000DF160E94D015B801CE010E94730FDF91C5
:10238000CF911F910F910895CF93DF93EC01988126
:1023900089812B813C81232B31F08F3F31F481E007
:1023A0009F3F19F403C081E001C080E080FD19C0A7
:1023B000CE010E94B20581110CC00E94B117882382
:1023C00081F08A81882369F082E0DF91CF910C94BB
:1023D0005018CE010E94AC11CE01DF91CF910C9428
:1023E000BF04DF91CF9108950E94D8170E94E8178B
:1023F0000E9406180E945F1D0C94351C80910901F3
:1024000090910A010E94C1190C94F4110E94C817FE
:102410000C94FE11E92FE295EF704E2F50E0FA0177
:102420003297EE30F105B0F4E259FF4F0C943524A9
:10243000803F91F018F4883E68F40EC0843F51F458
:102440000BC0883E48F0813F29F406C093FB8827E3
:1024500080F9089580E0089581E008950E94791739
:102460000E940A120895CF93DF9300D000D01F92EC
:10247000CDB7DEB70F900F900F900F900F90DF91B8
:10248000CF910895CF93DF9300D000D000D0CDB787
:10249000DEB726960FB6F894DEBF0FBECDBFDF9134
:1024A000CF9108951F93CF93DF93C091560116E00B
:1024B00080915701C81799F0D0E01C9FF0011D9F33
:1024C000F00D1124E85AFE4F4081518162817381E1
:1024D000848195810E9442122196C770E9CFDF91D5
:1024E000CF911F9108954091880150918901609189
:1024F0008A0170918B0180918C0190918D010C94D7
:1025000042120F931F93CF93DF9380918D01829599
:102510008F7009F05DC080918A01882309F458C04A
:102520008091560110915701609188017091890145
:10253000C0918B01D0918C0191E06F3F09F090E048
:10254000292F06E0811709F443C0209721F07F3F2F
:1025500021F030E003C031E001C0322F90E030FDC7
:1025600034C0089FF001099FF00D1124DF01A85A23
:10257000BE4F11963C911197371327C03C913613EB
:1025800024C012963C91129731111FC013964D91A1
:102590005C9114974C1B5D0B44365105B0F480914F
:1025A0008D018F70806180938D01E35AFE4F808191
:1025B0008F708061808388E891E00E94C411DF9170
:1025C000CF911F910F910C94521201968770BACF40
:1025D000DF91CF911F910F9108959F92AF92BF927B
:1025E000CF92DF92EF92FF920F931F93CF93DF93DF
:1025F000CDB7DEB761970FB6F894DEBF0FBECDBF83
:102600008C0185E0F801DE011D9601900D928A95FE
:10261000E1F7F80140815181E28090918801609159
:10262000890120918B0130918C012115310531F008
:102630006F3F31F481E09F3F19F403C081E001C096
:1026400080E0F82FF1709F2E80FD2CC1F801A3804F
:10265000B48088E8C82E81E0D82EF0908A01F50178
:10266000E21BF30BFF2009F4EBC080918D01E436EF
:10267000F10508F0A7C0282F207F09F052C056139B
:1026800013C0491311C0FE2CE1100EC08F70806181
:1026900080938D010E947312C6010E94C411809123
:1026A0008D01F80185833EC1AB2831F05F3F31F4E5
:1026B00081E04F3F19F403C081E001C080E080FD5C
:1026C00003C081E08E2502C080E090E0F82FF17019
:1026D000FF2E80FF1CC0809156012091570136E0EB
:1026E000821709F4FDC090E0389FF001399FF00D8A
:1026F0001124E85AFE4F6181561306C060814613CB
:1027000003C06281E61203C001968770E9CFFE2CF8
:10271000EE2009F407C180918D01816080938D01C5
:1027200066C0561312C0491310C0E1100EC0F80164
:102730008583C8010E94C41186E0F801A8E8B1E0D1
:1027400001900D928A95E1F7C8C04D875E878D850F
:102750009E850E942E12882379F1EE2069F1209146
:102760008D01822F82958F7090E0029774F0809196
:1027700088019091890198878F831986BB86AA86E4
:102780002C87CE0107960E94C41186E0F801A8E8C4
:10279000B1E001900D928A95E1F70E9481120E94AA
:1027A00073120DC0561729F14D875E878D859E8562
:1027B0000E942E1281112CC0C8010E94C411FF2456
:1027C000F394B0C0282F207F69F77A2DB98AA88AA0
:1027D0006E2D89890E94331288E891E00E94C4110D
:1027E00086E0F60111928A95E9F70E947312F12CA6
:1027F00099C04913D9CFE110D7CFF8018583C8011B
:102800000E94C41186E0F60111928A95E9F78AC008
:10281000EE2091F220918D01822F82958F7090E0B1
:1028200002970CF4B2CF80918801909189019A832C
:1028300089831B82BD82AC822E83CE010196A3CFF9
:10284000E436F10510F5FE2CEE2009F4B5CF561351
:102850000BC0491309C086E0F801A8E8B1E0019077
:102860000D928A95E1F75EC04D875E878D859E85C6
:102870000E942E12811189CF80918D0181608093F9
:102880008D01C8010E94C4114DC07A2DB98AA88A51
:102890006E2D89890E94331286E0F60111928A9585
:1028A000E9F71BC0EE2009F487CF4D875E878D8541
:1028B0009E850E942E12F82E882309F47DCF86E093
:1028C000F801A8E8B1E001900D928A95E1F788E857
:1028D00091E00E94DD0E0E9481120E94731222C0BC
:1028E0004D875E878D859E850E947917292F2295B9
:1028F0002F70223028F49F7039F0811105C00BC071
:10290000243028F49F7049F4805E883020F0C8019C
:102910000E94C4119F2CF92C05C0F8019581907F6D
:1029200099F7F9CF8F2D61960FB6F894DEBF0FBEE1
:10293000CDBFDF91CF911F910F91FF90EF90DF906E
:10294000CF90BF90AF909F9008951F93CF93DF9348
:10295000CDB7DEB72C970FB6F894DEBF0FBECDBF54
:102960004F83588769877A878B879C87CE01079624
:102970000E94ED128823D1F09F8188852A853B85AE
:10298000232B31F08F3F31F481E09F3F19F403C0D6
:1029900081E001C080E080FD47C04F815885698596
:1029A0007A858B859C850E9442123EC086E0FE019E
:1029B0003796DE01119601900D928A95E1F7FF811D
:1029C000E8856A857B856115710531F0EF3F31F44B
:1029D00081E0FF3F19F403C081E001C080E080FD89
:1029E00023C02091570130E0C901019687709927D3
:1029F0004091560150E084179507F1F1F983EA837D
:102A00007D836C8396E0929FD001939FB00D11243B
:102A1000A85ABE4FFE01319601900D929A95E1F7AA
:102A2000809357010E94521216E0809156019091B6
:102A30005701891771F1189FC0011124885A9E4FC0
:102A40000E94ED12882329F1E09156011E9FF001AA
:102A50001124E85AFE4F4081518162817381848143
:102A600095810E9442128091560190E001968770F4
:102A7000992780935601D9CF0E94061210925701D0
:102A800010925601E8E8F1E086E0DF011D928A9598
:102A9000E9F72C960FB6F894DEBF0FBECDBFDF91DD
:102AA000CF911F910895EF92FF920F931F93CF93B1
:102AB000DF938C01892B09F46CC0F12CEE24E39494
:102AC000E8012196F8018491843740F4843008F0BD
:102AD00051C0813081F0823019F15BC0853709F433
:102AE00044C0A8F19CE7980F903708F052C08F7748
:102AF0000E941E0F41C00E5F1F4FFE01849190E2A5
:102B0000980F983050F48770FE2D01C0FF0F8A9502
:102B1000EAF78F2F0E94DB1714C00E94E30E2DC02E
:102B20000E5F1F4FFE01849190E2980F983060F481
:102B30008770FE2D01C0FF0F8A95EAF78F2F0E9444
:102B4000E1170E94061819C00E941E0F16C00E5FE2
:102B50001F4FFE01C491CC2381F08FE99FE00197C4
:102B6000F1F700C00000C150F6CF0E5F1F4FFE010D
:102B7000F49003C00E94E30E8E018F2D882309F488
:102B80009FCFEFE9FFE03197F1F700C000008150DF
:102B9000F5CFDF91CF911F910F91FF90EF900895A6
:102BA000089508950C94D1150C94D2150E94D41553
:102BB0006093C4017093C5018093C6019093C701CF
:102BC0000C94F4110C94D6150F931F930091C4012B
:102BD0001091C5012091C6013091C701602B712B66
:102BE000822B932B1F910F910C94D6150F931F934B
:102BF0000091C4011091C5012091C6013091C70117
:102C000060237123822393231F910F910C94D61577
:102C10000F931F930091C4011091C5012091C6012B
:102C20003091C70160277127822793271F910F9149
:102C30000C94D6150C94D1150E941A166093C001FD
:102C40007093C1018093C2019093C3010C94F4115D
:102C500060E070E0CB010C941C160F931F9341E0D1
:102C600050E060E070E08A019B0104C0000F111F7A
:102C7000221F331F8A95D2F7C901B8011F910F9106
:102C80000C941C160F931F9341E050E060E070E03D
:102C900004C0440F551F661F771F8A95D2F7809195
:102CA000C0019091C101A091C201B091C3018A01FC
:102CB0009B01082B192B2A2B3B2BC901B8011F9113
:102CC0000F910C941C160F931F9341E050E060E0AD
:102CD00070E004C0440F551F661F771F8A95D2F716
:102CE00040955095609570958091C0019091C1017B
:102CF000A091C201B091C3018A019B01082319234D
:102D00002A233B23C901B8011F910F910C941C1673
:102D10000F931F9341E050E060E070E004C0440F67
:102D2000551F661F771F8A95D2F78091C001909139
:102D3000C101A091C201B091C3018A019B01082782
:102D400019272A273B27C901B8011F910F910C941D
:102D50001C160F931F930091C0011091C101209187
:102D6000C2013091C301602B712B822B932B1F91D9
:102D70000F910C941C160F931F930091C00110919A
:102D8000C1012091C2013091C301602371238223CC
:102D900093231F910F910C941C160F931F93009176
:102DA000C0011091C1012091C2013091C30160277F
:102DB0007127822793271F910F910C941C16089559
:102DC00028E0929F800D1124E82FE695E695E69580
:102DD000877051E001C0550F8A95EAF785E0E89FBA
:102DE000F0011124E257FE4F20E030E070E0408116
:102DF000CB01022E02C0969587950A94E2F7817066
:102E0000819584278523842781932F5F3F4F253029
:102E1000310569F7089528E0929F800D1124682FED
:102E2000669566956695982F977085E0689FB001C6
:102E3000112440E050E080E0FB01E40FF51FE25771
:102E4000FE4F208130E0092E02C0369527950A9466
:102E5000E2F721703327042E01C0220F0A94EAF70B
:102E6000822B4F5F5F4F4530510531F70895BF9278
:102E7000CF92DF92EF92FF920F931F93CF93DF9346
:102E80008C01C090C001D090C101E090C201F090CF
:102E9000C3018091C4019091C501A091C601B09178
:102EA000C701C82AD92AEA2AFB2ACFE1D0E0D701F4
:102EB000C6010C2E04C0B695A795979587950A94E0
:102EC000D2F780FD04C0219790F7B12C07C0BC2E2B
:102ED000B8018C2F0E9410060197A9F38B2DDF916A
:102EE000CF911F910F91FF90EF90DF90CF90BF9007
:102EF0000895CF93DF93EC010E943717BE010E9423
:102F00001006DF91CF9108951F93CF93DF93EB01CC
:102F100090915501992321F0CB010E94791713C09C
:102F2000882349F0CB010E943717182F682FCE0154
:102F30000E94E01604C0CB010E940B17182FBE019F
:102F4000812F0E941006DF91CF911F9108958091EB
:102F5000C80185958595859508958091C8018770EC
:102F600008959091C801977081E009F480E0089578
:102F70008091EC0108959091EC01892B8093EC01F4
:102F8000089580959091EC0189238093EC01089538
:102F90001092EC0108959091EB01892B8093EB0145
:102FA000089580959091EB0189238093EB0108951A
:102FB0001092EB0108959091EA01892B8093EA0128
:102FC000089580959091EA0189238093EA010895FC
:102FD0001092EA0108958091C901089508950C9412
:102FE000EE170C94EF179091C901981721F0809378
:102FF000C9010C94F11708958091C901882329F023
:103000001092C90180E00C94F1170895E091090134
:10301000F0910A018091EC018083E0910901F09127
:103020000A0190818091EB01892B8083E091090155
:10303000F0910A0190818091EA01892B808380912F
:10304000C901882381F0E0910901F0910A01908182
:10305000892B80838091090190910A010E941519A2
:1030600081110E94FC178091090190910A010C9432
:10307000A50D0C94EE1798E0899F90011124262B42
:103080002093C8010E9442168091C80185958595BC
:1030900085950C9439181092C80180E00C94391869
:1030A0002091C801809582238093C801982F977042
:1030B00079F430E0482F082E000C550B2417350703
:1030C00039F08595859585950E9463160C944B186B
:1030D000089580E090E00E94572421E08C3E9E4FAE
:1030E00009F020E0822F089582E090E00C944F24B4
:1030F00083E090E00C944F24682F83E090E00C94E0
:103100005D24CF9384E090E00E944F24C82F81E299
:1031100090E00E944F242C2F30E0A901582BCA01C7
:10312000CF910895CF93C92F682F84E090E00E943B
:103130005D246C2F81E290E0CF910C945D24AB0173
:10314000BC018FE090E00C946F24AB01BC0183E1E3
:1031500090E00C946F2460E070E0CB010C94A51813
:1031600060E070E0CB010E949F180C94AB186CEEED
:103170007EEF80E090E00E947B2460E082E090E0BF
:103180000E945D2460E083E090E00E945D24109244
:10319000C4011092C5011092C6011092C70160E0EF
:1031A00084E090E00E945D2460E081E290E00E9473
:1031B0005D2460E085E090E00E945D2460E086E0B0
:1031C00090E00E945D246FEF87E090E00E945D2414
:1031D00040E050E0BA0188E090E00E946F2460E097
:1031E0008DE090E00E945D2440E050E0BA0188E16B
:1031F00090E00E946F2460E087E190E00E945D24EF
:1032000040E050E0BA018CE190E00E946F2460E061
:1032100080E290E00E945D240C94B0180C94B718E2
:10322000682F8EE090E00C945D24FC013296809132
:103230001D01882331F080913C0287FF02C09EE18E
:1032400001C096E080E0915028F021912223D9F32B
:103250008F5FF9CF0895662351F120911D0122233C
:10326000E9F020913C0227FF19C0462F469546956C
:1032700046954E31E0F4677021E030E002C0220F45
:10328000331F6A95E2F7FC01E40FF11D828190E0A3
:103290002823392381E0232B69F409C0FC013296ED
:1032A00008962191621729F0E817F907D1F780E015
:1032B000089581E008959C01FC0132969FEF80E023
:1032C0004191461789F09F3F19F4411101C0982F91
:1032D0008F5F8630A9F79F3F39F0F901E90FF11DA3
:1032E00097FDFA956283089508959C012A5F3F4FE8
:1032F000FC014281461301C0128201968217930796
:10330000B9F70895262F2695269526952E3168F42F
:10331000FC01E20FF11D677021E030E001C0220FD7
:103320006A95EAF78281282B22830895262F269515
:10333000269526952E3170F4FC01E20FF11D677081
:1033400021E030E001C0220F6A95EAF720958281E2
:1033500028232283089520911D01222329F0209102
:103360003C0227FD0C9482190C945B1920911D01DD
:10337000222329F020913C0227FD0C9496190C94ED
:10338000751920911D01FC013296222331F08091A4
:103390003C0287FF02C08EE101C086E0DF011D9282
:1033A0008A95E9F7089508950C94D3190C94D319CC
:1033B000CF930E94D6190E948B080E94D419C0E0B6
:1033C0008C2F0E94E907811104C0CF5FCA30C1F77A
:1033D00001C081E0CF9108950C94D3190C94EC199D
:1033E0000E94EE1980914202843049F11092EE0160
:1033F00020E488E190E00FB6F894A89580936000EF
:103400000FBE2093600080E00E9499050E94EE1993
:1034100083B7817F846083BF83B7816083BF7894E3
:10342000889583B78E7F83BF0FB6F894A895809157
:103430006000886180936000109260000FBE089564
:103440000C94D3190E9406120E94990D0E949905AE
:103450000C94201A1F920F920FB60F9211248F9383
:103460009F93AF93BF938091EE01811113C0809120
:10347000380290913902A0913A02B0913B024196F4
:10348000A11DB11D8093380290933902A0933A0296
:10349000B0933B02BF91AF919F918F910F900FBE60
:1034A0000F901F90189582E084BD93E095BD9AEF30
:1034B00097BD80936E0008952FB7F89480913802DD
:1034C00090913902A0913A02B0913B022FBF08952A
:1034D0009C014FB7F8948091380290913902A091E5
:1034E0003A02B0913B024FBF821B930B0895789430
:1034F0001F920F920FB60F9211248F939F93AF9349
:10350000BF938091380290913902A0913A02B09114
:103510003B020196A11DB11D8093380290933902A0
:10352000A0933A02B0933B02BF91AF919F918F91CC
:103530000F900FBE0F901F90189587E797E7909315
:103540000108809300089AE088E10FB6F894A895E6
:10355000809360000FBE90936000FFCF0E946918B7
:10356000811102C00E940E190E9474188093ED010F
:103570000E94811890933D0280933C020E9478182B
:10358000682F70E080E090E00C94E2158091F601E5
:1035900080FF0BC06091100185E0689FB00111248D
:1035A00075956795759567952BC081FF09C06091EA
:1035B000100185E0689FB00111247595679520C0C2
:1035C00082FF07C06091100185E0689FB00111245F
:1035D00017C09091F5019923D1F060910F019617D2
:1035E00088F72091100185E0289F90011124929F77
:1035F000A001939F500D112470E0CA010E94212464
:103600006038710540F46115710519F406C065E074
:1036100070E0862F08958FE7089581E008958091E6
:10362000F60180FF08C060910C0170E07595679508
:103630007595679521C081FF06C060910C0170E00F
:103640007595679519C082FF04C060910C0170E008
:1036500010C09091F501992399F060910B01961794
:10366000A0F780910C01899FC001112470E00E9495
:1036700021246038710540F46115710519F406C004
:1036800061E070E0862F08958FE7089581E0089546
:10369000803F21F40E94C61A819504C0813F29F41D
:1036A0000E94C61A8093FA010895823F21F40E9475
:1036B000C61A819504C0833F29F40E94C61A8093DC
:1036C000F9010895893F19F40E940F1B05C08A3F34
:1036D00031F40E940F1B81958093FB0108958B3F6D
:1036E00021F40E940F1B819504C08C3F29F40E9495
:1036F0000F1B8093FC010895843F21F48091F80111
:10370000816017C0853F21F48091F801826011C06B
:10371000863F21F48091F80184600BC0873F21F43B
:103720008091F801886005C0883F31F48091F801EC
:1037300080618093F80108958D3F21F48091F60116
:1037400081600BC08E3F21F48091F601826005C03C
:103750008F3F29F48091F60184608093F6010895EB
:10376000803F39F48091FA0187FF6CC01092FA0112
:1037700069C0813F29F48091FA011816BCF362C038
:103780009091F901823F29F497FF5CC01092F901F2
:1037900059C0833F19F41916CCF354C0893F41F442
:1037A0008091FB0118160CF04DC01092FB014AC02D
:1037B0008A3F29F48091FB0187FF44C0F6CF8B3FFD
:1037C00039F48091FC0187FF3DC01092FC013AC0A2
:1037D0008C3F29F48091FC011816BCF333C0843F60
:1037E00021F48091F8018E7F17C0853F21F48091EC
:1037F000F8018D7F11C0863F21F48091F8018B7F05
:103800000BC0873F21F48091F801877F05C0883F76
:1038100031F48091F8018F7E8093F80113C08D3FC1
:1038200021F48091F6018E7F0BC08E3F21F48091B0
:10383000F6018D7F05C08F3F29F48091F6018B7FC3
:103840008093F6018091F90181110EC08091FA01F7
:1038500081110AC08091FB01811106C08091FC0199
:10386000811102C01092F501089587EF91E00E9446
:10387000BF0D0E945C1A9093F4018093F3010895A8
:10388000CF93DF9300D000D000D0CDB7DEB786E075
:10389000E7EFF1E0DE01119601900D928A95E1F7D4
:1038A0008091F901811105C08091FA01882309F402
:1038B0007AC08091F1019091F2010E94681AAC01E6
:1038C0009091F501992339F02091110130E02417EE
:1038D000350758F068C0209112018AE0289F9001B6
:1038E00011242417350718F05EC09F3F19F09F5F21
:1038F0009093F5011092FB011092FC018091F90167
:10390000181624F40E94C61A8093F9018091F901D7
:1039100087FF05C00E94C61A81958093F9018091A6
:10392000FA01181624F40E94C61A8093FA018091B5
:10393000FA0187FF05C00E94C61A81958093FA019B
:103940003091F9013323E1F02091FA012223C1F0F3
:1039500045EB3403C0011124992319F09093F90128
:1039600003C081E08093F90135EB2303C0011124EA
:10397000992319F09093FA0103C081E08093FA0132
:103980000E94351C8091F3019091F4019093F20113
:103990008093F10186E0FE013196A7EFB1E001903E
:1039A0000D928A95E1F78091FB01811105C080910C
:1039B000FC01882309F47AC08091EF019091F00115
:1039C0000E94681AAC019091F501992339F0209179
:1039D0000D0130E02417350758F068C020910E0122
:1039E0008AE0289F900111242417350718F05EC043
:1039F0009F3F19F09F5F9093F5011092F90110928B
:103A0000FA018091FB01181624F40E940F1B809389
:103A1000FB018091FB0187FF05C00E940F1B819570
:103A20008093FB018091FC01181624F40E940F1B67
:103A30008093FC018091FC0187FF05C00E940F1B51
:103A400081958093FC013091FB013323E1F02091BB
:103A5000FC012223C1F045EB3403C001112499235A
:103A600019F09093FB0103C081E08093FB0135EBDB
:103A70002303C0011124992319F09093FC0103C082
:103A800081E08093FC010E94351C8091F3019091AC
:103A9000F4019093F0018093EF0186E0FE013196EE
:103AA000A7EFB1E001900D928A95E1F726960FB647
:103AB000F894DEBF0FBECDBFDF91CF910895E7EF41
:103AC000F1E086E0DF011D928A95E9F71092F50199
:103AD0001092F601089580911D0208950895CF93E4
:103AE000DF93EC010E94661F823011F08430F9F4FC
:103AF00082E08093E9008FEF9091E800815095FD7E
:103B000006C095ED9A95F1F700008111F5CF8091EF
:103B1000E80085FF0CC040E050E066E070E0CE01B8
:103B20000E94831F8091E8008E778093E800DF91E8
:103B3000CF910895CF93DF93EC010E94661F8230EE
:103B400011F08430D9F580911D01882339F08091DE
:103B50003C0287FF03C060E282E002C068E081E0CF
:103B60008093E9008FEF9091E800815095FD06C0A9
:103B700095ED9A95F1F700008111F5CF8091E8005D
:103B800085FF1CC080911D01811105C040E050E0FF
:103B900068E070E003C070E040E050E0CE010E94B9
:103BA000831F8091E8008E778093E80080E2FE0119
:103BB000ADEFB1E001900D928A95E1F7DF91CF91E1
:103BC0000895089580914102811109C00E94142135
:103BD0000E9471218091E20084608093E200089548
:103BE000109241020895089508950C94221A42E01B
:103BF00061EC81E00E948D2042E261EC82E00C9455
:103C00008D2080914402833009F460C030F481300B
:103C100071F0823009F499C008958A3009F485C0A2
:103C20008B3009F46BC0893009F0A7C020C08091A7
:103C30004302813A09F0A1C08091E800877F809318
:103C4000E8008091470290914802892B21F460E2BC
:103C50008DEF91E003C060E080E090E070E00E94B2
:103C6000CE1F8091E8008B778093E80008958091C3
:103C70004302813209F081C080914702909148024D
:103C8000029708F07AC08091E800877F8093E8006F
:103C90008091E80082FD05C0809142028111F8CF39
:103CA0006CC02091F3008091F20090E0922B02977B
:103CB00029F48091F1008B7F813021F48091F10013
:103CC00080931D028091E8008B7753C0809143025E
:103CD000813A09F052C08091470290914802892BA5
:103CE00009F04BC08091E800877F8093E8008091C5
:103CF000E80080FFFCCF80911D0136C08091430217
:103D00008132D9F58091470290914802892BA9F51B
:103D10008091E800877F8093E8000E94C220809114
:103D2000450280931D010C9406128091430281325A
:103D300021F58091E800877F8093E8000E94C220EF
:103D40008091460280931E02089580914302813A39
:103D5000A1F48091E800877F8093E8008091E800DB
:103D600080FFFCCF80911E028093F1008091E800DB
:103D70008E778093E8000C94C220089584B7877FE3
:103D800084BF0FB6F894A8958091600088618093F5
:103D90006000109260000FBE90E080E80FB6F894CB
:103DA00080936100909361000FBE0E94070E0E94F5
:103DB00014210E9471218091E20084608093E200CE
:103DC00078940E9406240E940F0E83E191E00E94E5
:103DD000940D80914202853069F40E94F01980911F
:103DE00040028823B1F30E94D819882391F30E94DE
:103DF0006D1FEFCF0E94170EECCF0C94FF1E292FE2
:103E0000332723303105C9F060F42130310581F0CA
:103E10002230310509F04AC08BE390E022EA35E018
:103E200049C02132310511F12232310579F13EC00C
:103E300082E190E02DED35E03DC09927813091057C
:103E400061F040F08230910559F0039779F5ECE785
:103E5000F5E008C0EEE9F5E005C0E2E9F5E002C0F2
:103E6000E2E8F5E0849190E09F0124C061157105BE
:103E700041F061307105D1F489E090E02DEC35E03E
:103E800019C089E090E024EB35E014C0611571059C
:103E900041F06130710551F48AE890E02FEE35E091
:103EA00009C080E490E029E736E004C080E090E0BB
:103EB00020E030E0FA0131832083089580914202AE
:103EC000843011F081E0089582E0089580911F020E
:103ED000811102C00C945E1F089580E189BD82E1CA
:103EE00089BD09B400FEFDCF8091D8008F7D8093FD
:103EF000D8008091E00082608093E0008091E00033
:103F000081FDFCCF0895CF92DF92EF92FF920F9345
:103F10001F93CF93DF93EC018B017A010E94E12084
:103F2000811133C0E114F10439F0F70180819181EE
:103F3000081B190BC80FD91FC12CD12C0115110555
:103F400019F18091E80085FD16C08091E8008E7718
:103F50008093E800E114F10449F0F7018081918138
:103F6000C80ED91ED182C08285E00FC00E94E12018
:103F7000882321F30AC089918093F100015011092F
:103F8000FFEFCF1ADF0ADACF80E0DF91CF911F91E8
:103F90000F91FF90EF90DF90CF900895209149020C
:103FA00030914A022617370748F06115710539F438
:103FB0002091E8002E772093E80001C0B901FC01B0
:103FC00020E06115710579F1809142028823F1F1B9
:103FD0008530F1F18091E80083FD3CC08091E800DC
:103FE00082FD2EC08091E80080FFEBCF2091F3008E
:103FF0008091F20090E0922B6115710551F08830AC
:10400000910538F421912093F100615071090196D6
:10401000F3CF21E0089709F020E08091E8008E7747
:104020008093E800CECF2111CFCF0AC08091420209
:10403000882361F0853061F08091E80083FD0AC03B
:104040008091E80082FFF2CF80E0089582E0089539
:1040500083E0089581E008952091490230914A0259
:104060002617370748F06115710539F42091E800EB
:104070002E772093E80001C0B901FC0120E0611512
:10408000710591F180914202882309F440C0853086
:1040900009F43FC08091E80083FD3DC08091E800B5
:1040A00082FD2FC08091E80080FFE9CF2091F300CE
:1040B0008091F20090E0922B6115710559F08830E3
:1040C000910540F424912093F100319661507109DB
:1040D0000196F2CF21E0089709F020E08091E800F6
:1040E0008E778093E800CBCF2111CCCF0AC080918E
:1040F0004202882361F0853061F08091E80083FD01
:104100000AC08091E80082FFF2CF80E0089582E04B
:10411000089583E0089581E00895982F973068F519
:104120009093E900981739F07091EC002091ED0020
:104130005091F00003C0242F762F50E021FD02C0E3
:104140009F5FECCF3091EB003E7F3093EB003091DE
:10415000ED003D7F3093ED003091EB003160309306
:10416000EB007093EC002093ED005093F000209151
:10417000EE0027FDE5CF80E008958F708093E90081
:1041800081E008958091430287FF11C08091E8008B
:1041900082FD05C0809142028111F8CF11C080914B
:1041A000E8008B770BC080914202882349F0809110
:1041B000E80080FFF8CF8091E8008E778093E800D8
:1041C00008952091E4003091E50095E64091EC00DF
:1041D000842F817040FF23C08091E80080FD1DC0C6
:1041E00080914202882399F0853099F08091EB000C
:1041F00085FD11C04091E4005091E500241735077A
:1042000029F3915011F09A01E1CF84E0089582E002
:10421000089583E0089581E0089580E00895409135
:10422000E80042FFDDCF08950E9482210E948A218A
:10423000E0EEF0E0808181608083E8EDF0E0808155
:104240008F77808319BCA7EDB0E08C918E7F8C9323
:1042500080818F7E80831092410208950F931F9377
:10426000CF93DF930E9482210E948A21C8EDD0E083
:1042700088818F77888388818068888388818F7D13
:10428000888319BC1092420210923E0210924002A2
:1042900010923F0200EE10E0F80180818B7F808356
:1042A00088818160888342E060E080E00E948D2008
:1042B000E1EEF0E080818E7F8083E2EEF0E08081AD
:1042C00081608083808188608083F80180818E7F17
:1042D0008083888180618883DF91CF911F910F91C6
:1042E0000895E8EDF0E080818F7E8083E7EDF0E0D7
:1042F00080818160808384E082BF81E0809341027D
:104300000C942E21E8EDF0E080818E7F8083109266
:10431000E20008951092DA001092E10008951F92D1
:104320000F920FB60F9211242F933F934F935F93E9
:104330006F937F938F939F93AF93BF93EF93FF936D
:104340008091E10082FF0BC08091E20082FF07C0F4
:104350008091E1008B7F8093E1000E940524809191
:10436000DA0080FF1FC08091D80080FF1BC08091C1
:10437000DA008E7F8093DA008091D90080FF0DC033
:1043800080E189BD82E189BD09B400FEFDCF81E0F5
:10439000809342020E94E21D05C019BC10924202A5
:1043A0000E94F01D8091E10080FF19C08091E20021
:1043B00080FF15C08091E2008E7F8093E2008091A3
:1043C000E20080618093E2008091D8008062809357
:1043D000D80019BC85E0809342020E94F41D8091B0
:1043E000E10084FF30C08091E20084FF2CC080E1B6
:1043F00089BD82E189BD09B400FEFDCF8091D8005E
:104400008F7D8093D8008091E1008F7E8093E100C2
:104410008091E2008F7E8093E2008091E2008160D3
:104420008093E20080913E02882311F084E007C06F
:104430008091E30087FD02C081E001C083E08093AA
:1044400042020E94F51D8091E10083FF29C0809106
:10445000E20083FF25C08091E100877F8093E10027
:1044600082E08093420210923E028091E1008E7FB2
:104470008093E1008091E2008E7F8093E200809142
:10448000E20080618093E20042E060E080E00E9410
:104490008D208091F00088608093F0000E94F31DD1
:1044A000FF91EF91BF91AF919F918F917F916F910C
:1044B0005F914F913F912F910F900FBE0F901F90E2
:1044C00018951F920F920FB60F9211242F933F93BE
:1044D0004F935F936F937F938F939F93AF93BF930C
:1044E000CF93DF93EF93FF93C091E900CF7080915A
:1044F000EC00D82FD17080FDD0E81092E9008091B7
:10450000F000877F8093F00078940E94A52210929B
:10451000E9008091F00088608093F000CD2BCF708F
:10452000C093E900FF91EF91DF91CF91BF91AF91DF
:104530009F918F917F916F915F914F913F912F91BB
:104540000F900FBE0F901F9018951F93CF93DF937E
:10455000CDB7DEB7AA970FB6F894DEBF0FBECDBFBA
:10456000E3E4F2E08091F100819322E0EB34F20782
:10457000C9F70E94011E8091E80083FF2EC180913F
:10458000430290914402492F50E04A30510508F00F
:1045900024C1FA01E458FF4F0C943524803821F0EF
:1045A000823809F01AC108C080913F029091400200
:1045B000992389F082600FC0809147028F70873005
:1045C00008F00BC18093E9008091EB0085FB882700
:1045D00080F91092E9009091E800977F9093E800AD
:1045E0008093F1001092F100D1C0282F2D7F09F0A7
:1045F000F4C0882319F0823061F0EFC08091450249
:10460000813009F0EAC0933009F080E080934002E5
:104610002EC08091450281112AC0809147028F707F
:104620002FEF280F263008F0D8C08093E9002091A2
:10463000EB0020FF1CC0933021F48091EB008062DE
:1046400014C09091EB0090619093EB0021E030E07A
:10465000A90102C0440F551F8A95E2F74093EA0072
:104660001092EA008091EB0088608093EB0010923A
:10467000E9008091E800877F8093E8000E94C220D3
:10468000ACC08111AAC0109145021F778091E30050
:104690008078812B8093E3008091E800877F80936E
:1046A000E8000E94C2208091E80080FFFCCF80914A
:1046B000E30080688093E300111102C082E001C032
:1046C00083E08093420289C08058823008F085C020
:1046D00080914502909146028C3D53E0950779F513
:1046E00083E08A838AE289834FB7F894DE011396C8
:1046F00020E03EE051E2E32FF0E050935700E491D8
:1047000020FF03C0E295EF703F5FEF708E2F90E0C7
:10471000EA3010F0C79601C0C0968D939D932F5F2D
:10472000243149F74FBF8091E800877F8093E800EC
:104730006AE270E0CE0101960E94CE1F16C0609121
:10474000470270914802AE014F5F5F4F0E94FD1E0D
:10475000BC01892B09F441C09091E800977F9093A8
:10476000E80089819A810E942C208091E8008B7753
:104770008093E80032C0803881F58091E800877F1F
:104780008093E80080913E028093F1008091E800E0
:104790008E7772CF811121C080914502909146029F
:1047A00099270297D4F48091E800877F8093E800EE
:1047B0008091450280933E020E94C22080913E0279
:1047C000811106C08091E30087FD02C081E001C035
:1047D00084E0809342020E94F71D8091E80083FFED
:1047E0000AC08091E800877F8093E8008091EB0009
:1047F00080628093EB00AA960FB6F894DEBF0FBEDE
:10480000CDBFDF91CF911F9108950895CF938091EF
:1048100042028823A1F0C091E900CF709091EC0092
:10482000892F817090FD80E8C82B1092E90080915B
:10483000E80083FD0E94A522CF70C093E900CF91CC
:10484000089597FB072E16F4009407D077FD09D042
:104850000E943B2407FC05D03EF4909581959F4F24
:104860000895709561957F4F0895EE0FFF1F059095
:10487000F491E02D0994AA1BBB1B51E107C0AA1FAC
:10488000BB1FA617B70710F0A61BB70B881F991FF1
:104890005A95A9F780959095BC01CD010895F99995
:1048A000FECF92BD81BDF89A992780B50895A8E101
:1048B000B0E042E050E00C948324262FF999FECF1B
:1048C00092BD81BDF89A019700B4021639F01FBA63
:1048D00020BD0FB6F894FA9AF99A0FBE0895039680
:1048E000272F0E945E240E945D24252F0E945E24B3
:1048F000242F0C945E240196272F0E945E240C9492
:104900005D24DC01CB01FC01F999FECF06C0F2BDAC
:10491000E1BDF89A319600B40D9241505040B8F77D
:064920000895F894FFCF9A
:10492600013701003801053801CA012808641E1440
:104936000A321E6B1D9A1D6F1DE11D6E1D01F4F5D9
:10494600F6F731333236946697C63400000000001D
:00000001FF
