:100000000C945D030C94A4030C94A4030C94580466
:100010000C94A4030C94A4030C94A4030C94A403C4
:100020000C94A4030C94A4030C94DE210C94B02231
:100030000C94791A0C94A4030C94A4030C94A403B8
:100040000C94A4030C94A4030C94A4030C94A40394
:100050000C94A4030C94C61A0C94A4030C94A4034B
:100060000C94A4030C94A4030C94A4030C94A40374
:100070000C94A4030C94A4030C94A4030C94A40364
:100080000C94A4030C94A4030C94A4030C94A40354
:100090000C94A4030C94A4030C94A4030C94A40344
:1000A0000C94A4030C94A4030C94A403E407EC079D
:1000B000F60709085E08280833084508F80FF80F06
:1000C0002A102A10CF117710CF11CF11B9104E116D
:1000D0005F115F11BF11CF11CF11C81167126712E5
:1000E00079127912701279127912791267126712E5
:1000F00075127912791275121D2344233C2444236E
:100100003C249023B3233C240A2419240102E260F6
:100110000103E2000102E2600103E200E2002900C3
:100120001E001F002000210022003602E3002B00E9
:1001300014001A00080015001700250249000C5D84
:1001400004001600070009000A0030004A00010000
:100150001D001B0006001900050030028B00E000A6
:10016000E1002C000A5D00000000000037022300BF
:1001700024002500260027002D004C0026021C002C
:1001800018000C00120013002F002A0032000B0090
:100190000D000E000F003300340028003202110061
:1001A000100036003700380087004D000B5D2A0034
:1001B00028002E008A00000000000000E200290054
:1001C0001E001F002000210022003602E3002B0049
:1001D00014001A00070009000A00250249000C5DFE
:1001E00004001200080018000C0030004A00010052
:1001F0001D001B0006001900050030028B00E00006
:10020000E1002C000A5D000000000000370223001E
:1002100024002500260027002D004C0026021C008B
:1002200016001700150013002F002A0032000B00E3
:100230000D000E000F0033003400280032021100C0
:10024000100036003700380087004D000B5D2A0093
:1002500028002E008A0000000000000001000100BC
:100260003A003B003C003D003E000100010001005F
:100270000100010001000100010001000100010076
:100280000100010001000100085DDE5C01000100C9
:100290000100010001000100095D005C0100E000B7
:1002A0002C00E100010000000000000001003F0000
:1002B00040004100420043004400450001000100AD
:1002C00001000100010001000100010001005000D7
:1002D000510052004F000100010001000100010027
:1002E0000100010001000100010001000100010006
:1002F00001000100010000000000000001000100F9
:100300003A003B003C003D003E00010001000100BE
:1003100001000100010001000100010001000100D5
:100320000100010001000100085DDE5C0100010028
:100330000100010001000100095D005C0100E00016
:100340002C00E100010000000000000001003F005F
:10035000400041004200430044004500010001000C
:10036000F400F600F500F900010001000100F200C0
:10037000F100F000F300FA0001000100010050005C
:10038000510052004F000100010001000100010076
:100390000100010001000000000000000100010058
:1003A0000100010001000100010001000100010045
:1003B0000100010001000100010001000100010035
:1003C0000100010001000100010001000100010025
:1003D0000100010001000100010001000100010015
:1003E0000100010001000000000000000100010008
:1003F00001000100010001000100010001000100F5
:1004000001000100010001000100010001000100E4
:1004100001000100010001000100010001000100D4
:1004200001000100010001000100010001000100C4
:10043000010001000100000000000000E2002900AE
:100440001E001F002000210022000100E3002B00FD
:100450002E0287021F0224022F0201004900010020
:1004600033022D0034022D02340001004A00010045
:100470001E02380220022102220201000E5DE0006D
:100480002C00E1000A5D00000000000001002300D4
:10049000240025002600270001000100010023029E
:1004A00025023602300230002A00010001008902D4
:1004B000260237023202320028000100010001004A
:1004C0002F002E003600010001004D000B5D2A00B8
:1004D00028002E000F5D000000000000000000005A
:1004E000000000002A2B280000000000000000008F
:1004F0000000000000000029000000002C1E342035
:10050000212224342627252E362D3738271E1F205A
:100510002122232425263333362E37381F0405069F
:100520000708090A0B0C0D0E0F10111213141516E3
:100530001718191A1B1C1D2F3130232D35040506E1
:100540000708090A0B0C0D0E0F10111213141516C3
:100550001718191A1B1C1D2F3130354C00000000D4
:10056000000000000000000000000000000000008B
:100570007E0F00D4FFFFFFC70000007804033000A7
:1005800000000E03480069006E006F006400650003
:1005900000000A03780063006400300000000403D8
:1005A000090409023B00020100A0FA09040000014D
:1005B000030101000921110100012240000705810A
:1005C0000308000A090401000103000000092111C9
:1005D000010001228A000705820320000A1201108F
:1005E000010000000865320000010001020301055E
:1005F000010902A10185020901A1000509190129CA
:100600000515002501950575018102950175038188
:10061000010501093009311581257F950275088191
:100620000609381581257F950175088106050C0A94
:1006300038021581257F950175088106C0C0050126
:100640000906A1018505050719E029E7150025011F
:100650009508750181020507190029EF150025018C
:1006600095F07501810205081901290595057501A7
:100670009102950175039101C005010906A10105CB
:100680000719E029E71500250195087501810295F4
:1006900001750881010507190029FF150026FF00D3
:1006A000950675088100050819012905950575014C
:1006B0009102950175039101C00011241FBECFEF77
:1006C000DAE0DEBFCDBF04B603FE27C0809163022F
:1006D00090916402A0916502B09166028730904BC0
:1006E000A740B04BD1F410926302109264021092B2
:1006F00065021092660214BE84B7877F84BF0FB66E
:10070000F894A895809160008861809360001092B1
:1007100060000FBEE0E0F8E3099511E0A0E0B1E071
:10072000EEEDF9E402C005900D92A434B107D9F7BB
:1007300022E0A4E4B1E001C01D92A336B207E1F7C4
:100740000E940D1F0C94ED240C9400008EE14A9B36
:1007500002C08150E1F74A9BFECF08955A9880E28B
:100760008A95F1F75A9A0895FC012AE02A95F1F743
:1007700090E020E080E031E0261779F040E14A95F2
:10078000F1F7880F4A9B02C08160932700C00000E8
:1007900040E14A95F1F72F5FEFCF20E12A95F1F77D
:1007A00029B100C0000030E13A95F1F722FB222781
:1007B00020F992272081920F90830895EF92FF9263
:1007C0000F931F93CF93DF931F92CDB7DEB719829C
:1007D0008C017C01E60EF11C0E151F0559F00E94DC
:1007E000A60368E0CE0101960E94B403F80181934C
:1007F0008F01F2CF81E09981911180E00F90DF911C
:10080000CF911F910F91FF90EF9008959093460123
:100810008093450160934401529A5A9A08959093A7
:100820004601809345016093440152985A9AEA9A8E
:10083000E9E6F0E080818F7C80830895615091E04B
:1008400001C0990F6A95EAF720E031E0992361F041
:10085000492F482319F05A9A232701C05A9840E299
:100860004A95F1F79695F2CF222311F05A9A01C0DA
:100870005A9880E28A95F1F75A980895FF920F935B
:100880001F93CF93DF93EC018C01060F111DC0174E
:10089000D10741F0F9900E94AE0368E08F2D0E94CD
:1008A0001E04F5CFDF91CF911F910F91FF90089516
:1008B0001F920F920FB60F9211240F931F932F9335
:1008C0003F934F935F936F937F938F939F93AF93D8
:1008D000BF93EF93FF93CF93DF931F92CDB7DEB714
:1008E00019820E94A60367E0CE0101960E94B4031C
:1008F000382F369536953695932F96959570232FEC
:100900002570920F292F2370969596958770920FD8
:10091000891348C08981811145C0809144018317A2
:1009200008F440C080E18A95F1F75A9A529AA2E001
:10093000AA95F1F700C00091450110914601B8E079
:100940003B9F000D111D11245A98F8016581662303
:1009500021F0868197810E943E040E94AE03F0E15F
:10096000FA95F1F75A9852985A9A80E18A95F1F7D8
:10097000D80112966C911297662369F013968D91A7
:100980009C9114970E94DE03D801ED91FC91811196
:1009900005C082E004C0D801ED91FC9188E080831D
:1009A0000E94A6030F90DF91CF91FF91EF91BF912D
:1009B000AF919F918F917F916F915F914F913F91F7
:1009C0002F911F910F910F900FBE0F901F901895B0
:1009D0000F931F93CF93DF932091440130E02817AA
:1009E00039070CF471C09C0193E0220F331F9A95D4
:1009F000E1F7C0914501D0914601C20FD31FF89491
:100A0000529A5A9845E04A95F1F70000982F96952A
:100A100095708570890F982F937086958695890FAC
:100A20008901082B0E94AE0384E08A95F1F700C08B
:100A300067E0802F0E941E0440E14A95F1F752982A
:100A40005A9A4A9902C000C0FCCF87E090E04A9BC6
:100A50000EC0019751F4529A5A9AE881F98181E0C7
:100A60008083789481E090E031C000C0F0CF6D8148
:100A7000662381F08E819F810E94DE0381110AC06E
:100A8000529A5A9AE881F98182E08083789482E0D0
:100A900090E01CC00E94A60380E28A95F1F75A9864
:100AA000529A40E14A95F1F76A81662321F08B81E1
:100AB0009C810E943E040E94AE03E881F98110826D
:100AC000789480E090E002C084E090E0DF91CF91E4
:100AD0001F910F910895CF93DF93A9E3B1E04EE307
:100AE00051E061E070E08D91E82FE295EF70F0E069
:100AF00021A18F70EB0102C0CC0FDD1F8A95E2F7B8
:100B0000CE019C2F9095922391A392A1892B82A331
:100B10004A175B0741F7DF91CF91089508950C9430
:100B20008E050E9428070E946B05A1E3B1E041E019
:100B300050E08D91E82FE295EF70F0E021A18F70E9
:100B4000BA0102C0660F771F8A95E2F7CB01962F94
:100B50009095922391A392A1892B82A371E0A9334E
:100B6000B70739F7209A559A289A5D9AE1E5F1E09E
:100B7000A7E4B1E011921D9281E0EB35F807D1F7BF
:100B80000C946F099F92AF92BF92CF92DF92EF9237
:100B9000FF920F931F93CF93DF93809101018111F7
:100BA00003C0C5E0D0E002C0C0E0D0E0AE01495BC8
:100BB0005E4F7A0189E3C82E81E0D82E8A01AA24EB
:100BC000A394B12C25E0922EFEE3CF16F1E0DF06D0
:100BD00009F44AC0F60181916F01E82FE295EF70A8
:100BE000F0E021A18F70A50102C0440F551F8A9526
:100BF000E2F7CA01922F982B91A392A180958923A5
:100C000082A350EA5A95F1F7E1E3F1E020E040E0F9
:100C100050E03191A32FA295AF70B0E090968C91E7
:100C200090E03F7002C0959587953A95E2F780FD78
:100C300007C0C501042E01C0880F0A94EAF702C05C
:100C400080E090E0282B4F5F5F4F4830510509F757
:100C5000F8018081821719F02083909200010E9490
:100C60006B050F5F1F4FB0CF809100018823B1F05B
:100C7000815080930001811103C0CF5ADE4F07C01D
:100C80008FE99FE00197F1F700C0000007C0F7016E
:100C900091917F0199938F5F8530C9F781E0DF9152
:100CA000CF911F910F91FF90EF90DF90CF90BF9069
:100CB000AF909F900895CF93DF9320910101211170
:100CC00003C0C0E0D0E002C0C5E0D0E00E9443070E
:100CD000009721F0029781F428980EC0289ADE012F
:100CE000AF5ABE4F85E0E7E6F1E001900D928A959C
:100CF000E1F780E090E002C081E090E0DF91CF91E9
:100D000008950E94C20580910101811103C0E5E0B0
:100D1000F0E002C0E0E0F0E0EF5AFE4F20E030E00B
:100D200080E0D901A959BE4F4C919191491381E0BE
:100D30009C932F5F3F4F2530310599F790915F01CC
:100D4000890F80935F010895CF93DF930E940B0773
:100D5000882309F43FC00E94C205809101018111DE
:100D600003C0C5E0D0E002C0C0E0D0E0CF5ADE4F03
:100D700045E050E0BE0182E691E00E949E2425E01D
:100D8000FE01A2E6B1E001900D922A95E1F70E94E2
:100D90005B06892BD9F05D9880915B018F5F809312
:100DA0005B01863058F180910101811103C0E0E0C0
:100DB000F0E002C0E5E0F0E0EF5AFE4F80E090E0A6
:100DC0001192019685309105D9F718C05D9A10925D
:100DD0005B0114C00E94810680910101811103C052
:100DE000A0E0B0E002C0A5E0B0E0AF5ABE4F85E0A1
:100DF000E2E6F1E001900D928A95E1F70E94770911
:100E000081E0DF91CF910895E82FF0E0EF5AFE4F97
:100E100080810895089580915C01811112C08091B4
:100E2000D80080618093D8008AE18A95F1F700C0EC
:100E30008091D90080FD02C082E001C081E08093F2
:100E40005C0181E090915C01913009F080E00895AF
:100E50000E940B07809301010E940B07882319F061
:100E60000E94370702C00E943D077894089563E00E
:100E700070E082E091E00C94060463E070E082E0B0
:100E800091E00C940F040F931F93CF93DF938C0189
:100E900090911B0180911A01981761F082E090E017
:100EA0000E94E804EC01892B39F480911A018093A7
:100EB0001B0102C0C0E0D0E0012B49F480915D012C
:100EC00090915E01892B19F480E090E002C081E0EE
:100ED00090E00E94E804892B49F480915F0180939F
:100EE0001A0110925E0110925D0106C081E090E04F
:100EF00090935E0180935D01CE01DF91CF911F91B0
:100F00000F9108950E945A0E80936C010C94620810
:100F10000C944D0ECF93DF93EC010E94CB18BE01D1
:100F200080E090E0DF91CF910C943116CF92DF9268
:100F3000EF92FF920F931F9301E010E020E030E06A
:100F40006801790104C0CC0CDD1CEE1CFF1C6A9505
:100F5000D2F704C0000F111F221F331F8A95D2F74A
:100F60000C291D292E293F298091EE019091EF0136
:100F7000A091F001B091F10180239123A223B3232A
:100F8000081719072A073B0749F4842F1F910F916F
:100F9000FF90EF90DF90CF900C949116842F1F91CB
:100FA0000F91FF90EF90DF90CF900C94B216CF93FB
:100FB00088509D458830910508F080C0DB018A5A31
:100FC0009F4FFC010C9484241296CC91CC2309F4FD
:100FD00076C081E090E007C01296CC91CC2309F452
:100FE0006EC082E090E00E948A0762C01296CC91A7
:100FF000CC2349F080916D01811103C081E0809381
:101000006D0182E012C010926D0182E00E94B21662
:1010100019C01296CC91CC2381F080916D01811181
:1010200003C081E080936D0183E00E94911644E04B
:1010300063E082E00E9496073BC083E00E94B21604
:1010400010926D0144E063E082E00E94960737C091
:101050001296CC9184E0CC2319F00E94911628C0FE
:101060000E94B2162CC01296CC91CC2361F08091D4
:10107000540282FBCC27C0F982FD02C081E911C075
:1010800084E191E013C081E916C01296CC91CC2383
:1010900089F08091540282FBCC27C0F982FD04C004
:1010A00080E90E94320F0BC08CE091E00E946C0935
:1010B000C0E005C080E90E946D0F01C0C1E08C2F27
:1010C000CF910895089581E008950C94D70708956D
:1010D0000C9467081F93CF93DF9300D000D01F922A
:1010E000CDB7DEB749835A836B8330918301898101
:1010F0009A81311114C0662359F0222349F00E94CD
:101100008617182F682F89819A810E942F1703C094
:101110000E945A17182F69817A81812F04C00E947A
:10112000861769817A810F900F900F900F900F9022
:10113000DF91CF911F910C94DA09FC01262F408199
:1011400051816281738184810C946A08CF93DF930B
:10115000EC0160E00E949D08BE01DF91CF910C94EC
:101160006808FF920F931F93CF93DF93E82FF0E06F
:10117000E452FB4FF490C82FC695C695C695D0E0B3
:10118000FE01E459FA4F0491877010E0082E02C066
:10119000159507950A94E2F701701127FE01E45AAC
:1011A000FA4FC491D0E002C0D595C7958A95E2F771
:1011B000C170DD270115110519F081EE0E94320F73
:1011C000209719F086EE0E94320F8F2D0E94A10FFA
:1011D000CD2B19F086EE0E946D0F012B41F081EEB0
:1011E000DF91CF911F910F91FF900C946D0FDF91C4
:1011F000CF911F910F91FF900895EF92FF920F935F
:101200001F93CF93DF938C01F62E8AE0E82EF8012E
:101210008491882309F459C0813009F044C0E80161
:101220002196FE018491813041F42196FE011491B2
:10123000812F0E94320F812F0FC0823039F4E801D4
:101240002296FE0184910E94320F30C0833039F41F
:10125000E8012296FE0184910E946D0F27C0843020
:1012600029F5E8012296FE01249180E090E030E02B
:10127000205331092A30310560F4E89EA001E99E2F
:10128000500D1124C901840F951F2196FE01249150
:10129000EECF009759F0EFE9FFE03197F1F700C08A
:1012A00000000197F6CF0E94B108E8018E010F5FA0
:1012B0001F4F8F2D882309F4AACFEFE9FFE0319764
:1012C000F1F700C000008150F5CFDF91CF911F9161
:1012D0000F91FF90EF90089560E00C94FD080E943C
:1012E000B818811102C00E945D190C9482070C94F9
:1012F0008F0508950C94790981E008950C947C0978
:10130000CF93C82F0E947A098C2F0E947E09CF911B
:10131000089508950E9455120E9489092FEF84E3D1
:101320009CE0215080409040E1F700C000000C9408
:10133000EC1A0F931F93CF93DF93EC0161E00E94AF
:101340009D088C01BE010E946508882349F1BE01F9
:10135000C8010E94440C882319F1BE01C8010E94F3
:10136000850C8823E9F0BE01C8010E94B00D8823D6
:10137000B9F08A81882369F001158CE5180731F0EE
:101380000E3D1C4531F40E945D190AC00E948A0975
:1013900007C0CE01DF91CF911F910F910C9463088C
:1013A00080E0DF91CF911F910F91089580E090E050
:1013B00008950895E72FF0E09AE0899FE00DF11D70
:1013C000112483E0EE0FFF1F8A95E1F7E60FF11D70
:1013D000EE0FFF1FE45EFE4F859194910895880FF4
:1013E000991FFC01E458FA4F859194910895CF9389
:1013F000DF930E94DA090E94F90AEC01811521E5C8
:101400009207B8F5811540E5940708F08BC08F3F2F
:10141000910509F0E0F4803F910508F06EC0803E30
:10142000910580F4803C910508F069C081309105F8
:1014300009F4DBC008F4D7C00497813A910508F499
:10144000D4C0D1C0883E910508F4CFC0CCC0C1152E
:1014500080E3D80740F4C11520E2D20708F4C5C0E4
:10146000CE019F704EC0C11540E4D40708F057C0AC
:101470004CC0C11585E5D807A0F4C11524E5D207F5
:1014800008F097C0C11543E5D40708F07CC0C1152A
:1014900082E5D80708F061C0DC2FCC27C16FD06A85
:1014A000A4C0C11529E5D207A0F4C11548E5D407A9
:1014B00008F084C0C11586E5D80708F094C08C2FC9
:1014C0000E948D0B8F71C82FD0E0DC2FCC27D0620B
:1014D0008CC0C1152AE5D20708F475C0CE0190561C
:1014E0008115904208F07FC08D2F8F710E948D0B67
:1014F000DD27D0628F71D82B78C0D06576C0805C34
:1015000091090E94EF09EC0170C0CE019927D3FF29
:1015100003C0EC01D86C69C0EC01D06C66C0DF7010
:10152000D06A63C074E0969587957A95E1F78370E9
:101530009C2F937021E030E002C0220F331F9A9558
:10154000E2F73C68382BCF70C695C69580E2C89FFD
:10155000E0011124C22BD32B48C0CE018370992700
:1015600021E030E002C0220F331F8A95E2F78C2F72
:101570008695869540E2849FC0011124E901C82B1D
:10158000D92BDC6832C0CE018370992721E030E08E
:1015900002C0220F331F8A95E2F78C2F869586951D
:1015A00040E2849FC0011124E901C82BD92BDA68DD
:1015B0001CC0DC2FCC27C46FD06A17C0DC2FCC270F
:1015C000C06FD06A12C08C2F8F700E948D0B94E078
:1015D000D695C7959A95E1F7CF70D0E0DC2FCC2750
:1015E000D069C82B02C0C0E0D0E0CE01DF91CF911E
:1015F00008958238910569F1B0F48133910509F4B9
:101600006DC048F48932910509F463C08A329105AE
:1016100009F469C008958533910509F455C08933EB
:101620009105B9F00895833E910569F138F4803E43
:101630009105B1F0823E910509F10895863E91052C
:10164000A9F1873E9105B9F1843E910509F064C086
:1016500023C02091540220FD4FC021FD4DC00895AC
:101660008091540280FD44C08091550280FF44C0A7
:101670008091540284FD42C083EE4DC0809154029B
:1016800082FF38C0F5CF8091540282FD33C0809133
:10169000550280FD31C0ECCF8091550281FF32C0F0
:1016A0008091540284FD2AC087EE35C08091540297
:1016B00083FF26C0F5CF8091540283FD21C0809125
:1016C000550281FD1FC0ECCF8091540285FD1CC0E6
:1016D0001DC08091540285FD19C016C0809154022E
:1016E00086FD16C017C08091540286FD13C010C03D
:1016F00089E311C082EE0FC080EE0DC080E00BC008
:1017000086EE09C084EE07C089E205C085E303C008
:101710008AE201C081E390E008959091540292FF23
:101720000DC0282F2871283019F4877F846006C0E7
:10173000282F2471243011F48B7F886093FF0DC013
:10174000282F2871283119F4877E846106C0282F3C
:101750002471243111F48B7E88612091550220FF81
:101760000DC0382F3871383019F4877F816006C07A
:10177000382F3171313011F48E7F886021FF0DC018
:10178000282F2871283119F4877E816106C0282FFF
:101790002171213111F48E7E886194FD877E089538
:1017A0000F931F93CF93DF93C62FD42F122FFC01DB
:1017B00082818823C9F0609370010E94AB1A9093D4
:1017C0006F0180936E0180E28C0F883008F057C063
:1017D000C77081E001C0880FCA95EAF7DF91CF9109
:1017E0001F910F910C94B40F80917001681330C059
:1017F00080916E0190916F010E94B71A8436910515
:1018000038F500E20D0FCD17B9F080E28C0F88306B
:1018100040F4C77081E001C0880FCA95EAF70E94C2
:10182000BB0F083028F581E09D2F977001C0880F0D
:101830009A95EAF70E94B40F812F0E94A10F0830F9
:10184000F0F4D77081E001C0880FDA95EAF70AC09A
:1018500080E28C0F883098F4C77081E001C0880F57
:10186000CA95EAF7DF91CF911F910F910C94BB0FAE
:10187000812FDF91CF911F910F910C94A10FDF91D8
:10188000CF911F910F9108959C01CB01233F4CE50F
:101890003407F9F078F4283DFCE53F07B9F0293D1D
:1018A0004CE5340711F1273D3C4531F526E241EE88
:1018B00061EE1EC0253FFCE53F0799F070F0263F22
:1018C0003C45D1F427E245EE66EE12C027E245EE34
:1018D0000EC026E241EE60EE0BC027E245EE64EE5C
:1018E00007C026E241EE62EE03C028E241E065EE69
:1018F0000E94D00B80E00895FC018281882319F0BA
:1019000010927001089581E00895CF93DF93EC0168
:10191000FB018281882309F41FC1C230FCE5DF0787
:1019200008F41BC1C6319CE5D90738F09E012A5F37
:101930003C452930310508F010C10E94D018909321
:10194000550280935402C031ECE5DE0709F4C3C0B0
:1019500008F041C0C8308CE5D80709F49AC0F0F40B
:10196000C430ECE5DE0709F487C068F4C2308CE5CA
:10197000D80709F477C0C330DC4509F0E3C0809193
:101980005402826076C0C630ECE5DE0709F46EC012
:1019900008F07BC08091540288606BC0CC308CE52D
:1019A000D80709F485C068F4CA30ECE5DE0709F40D
:1019B00074C008F079C00E9455128091540280686A
:1019C00058C0CE308CE5D80709F476C008F07FC047
:1019D000809154028BC0CB3FECE5DE0709F44FC089
:1019E00018F5C3318CE5D80709F47DC078F4C1310E
:1019F000ECE5DE0709F473C0C231DC4509F0A2C092
:101A00000E945512809154028F7733C0C5318CE506
:101A1000D80709F472C008F486C0CA3FDC4509F053
:101A200091C0809155023EC0CF3FFCE5DF0709F42D
:101A30005FC058F4CD3F9CE5D90709F444C008F4D1
:101A40003FC08091550282602DC0C130FDE5DF07A7
:101A500009F475C008F45DC0C230DD4509F072C0FC
:101A600080E06EC080915402816003C08091540276
:101A700080618093540266C08091540211C08091AD
:101A800055028260809355025DC08091540280624D
:101A9000F0CF809154028064ECCF80915402886032
:101AA0008460E7CF8160EECF809154028E7FE1CFDA
:101AB000809154028D7FDDCF80915402877FD9CFF2
:101AC0008091550218C0809155028D7FDBCF8091A7
:101AD00054028F7ECECF809154028F7DCACF8091E9
:101AE00054028F7BC6CF80915402877F8B7FC1CFFA
:101AF000809155028D7F8E7FC5CF8091540282FBED
:101B0000222720F991E0922790FB82F990FB83F93C
:101B1000B0CF80915502982F909591708E7F892B30
:101B200090FB81F9AFCF0E9455128091540287FB40
:101B3000222720F991E0922790FB87F99ACF81E044
:101B40000E945F1980915402909155020E94E11801
:101B50000E94551280E001C081E0DF91CF9108958D
:101B6000CF93DF9386319C4541F5EB010E94071826
:101B7000982F8A8120911C0130911D01882379F0D2
:101B80009A7A81E009F480E080937101911102C09A
:101B900069E201C065E3C9010E94FA190AC0809197
:101BA0007101811102C069E201C065E3C9010E94AF
:101BB000051A0E94551880E001C081E0DF91CF91A5
:101BC000089590937701809376010895E0917601CE
:101BD000F0917701309721F00190F081E02D099488
:101BE00080E00895E0917601F0917701309799F0C7
:101BF00020913001222359F02091540227FF07C081
:101C0000DC012C9111962C93119725E02C930280E6
:101C1000F381E02D09940895E0917601F091770128
:101C2000309739F022E0DC012C930480F581E02D1F
:101C3000099408952091740130917501281739078E
:101C400071F09093750180937401E0917601F091A9
:101C50007701309721F00680F781E02D09940895EF
:101C600020917201309173012817390771F0909318
:101C7000730180937201E0917601F09177013097C2
:101C800021F00084F185E02D0994089585B78068DE
:101C900085BF85B7806885BF089508950C944D0E63
:101CA0000C944E0E0C944D0E0E94460E0E94520E45
:101CB0000C94500E81E008950C945A0E0E94A21AC2
:101CC0000E9491050E94FD1A0C948807AF92BF9262
:101CD000CF92DF92EF92FF920F931F93CF93DF93F8
:101CE000CDB7DEB72A970FB6F894DEBF0FBECDBFD3
:101CF0000E94A4060E945C0E811111C08FEF89839F
:101D00008A831B820E94AB1A8160782F9D838C830B
:101D100049815A816B818D810E94FE0E40C089E706
:101D2000A82E81E0B82E00E010E0C02E802F0E9487
:101D30000407E82EF501D1905F01D82631F40F5F3A
:101D40001F4F0A30110589F7D9CF80911B0281FD01
:101D50000E940A0780E0FF24F3949D2D9F21D1F07B
:101D60008E83CF82EF2081E009F480E088870E9493
:101D7000AB1A8160782F9A8789874E815F81688549
:101D80008A850E94FE0EF801E758FE4F8081F826F2
:101D9000F08205C08F5FFF0C8830F9F6D0CF0E942B
:101DA0008F1C0E94E60D909178018917B1F00E9476
:101DB000E60D809378012A960FB6F894DEBF0FBE29
:101DC000CDBFDF91CF911F910F91FF90EF90DF90EA
:101DD000CF90BF90AF900C9480092A960FB6F894DC
:101DE000DEBF0FBECDBFDF91CF911F910F91FF904E
:101DF000EF90DF90CF90BF90AF900895CF93DF9397
:101E0000CDB7DEB72B970FB6F894DEBF0FBECDBFB0
:101E10004F83588769877A878B87DE01119686E022
:101E2000FD0111928A95E9F785E0FE013796019050
:101E30000D928A95E1F749815A816B817C818D8170
:101E40009E810E94F4142B960FB6F894DEBF0FBE4D
:101E5000CDBFDF91CF910895FC01808191810E94D7
:101E6000C8170895CF938823B1F1C82F8CEF8C0F3A
:101E7000813AD0F46C2F80911C0190911D010E9439
:101E80007A19882349F06C2F80911C0190911D01D3
:101E90000E94051A0E9455186C2F80911C01909188
:101EA0001D010E94FA190CC080E28C0F883058F492
:101EB000C77081E001C0880FCA95EAF70E940A182E
:101EC000CF910C945518C03F30F08C2F0E94971B77
:101ED000CF910C94841CCF910895882389F19CEFB5
:101EE000980F913A40F4682F80911C0190911D0148
:101EF0000E94051A0DC090E2980F983058F4877030
:101F000091E001C0990F8A95EAF7892F0E94101875
:101F10000C9455189BE5980F933020F480E090E0E6
:101F20000C941A0E98E5980F973120F480E090E019
:101F30000C94300E803F20F00E94FF1B0C94841CF8
:101F40000895CF93C82F0E94320FC93349F42FEF61
:101F500087EE93E0215080409040E1F700C0000000
:101F60008C2FCF910C946D0F882321F00E940A18BA
:101F70000C9455180895882321F00E9410180C9491
:101F800055180895CF92DF92EF92FF920F931F930F
:101F9000CF93DF937C01062FC72FFC01158112958B
:101FA0001F70D281D1110E9427180E940018882327
:101FB00099F0DD2389F08C2F807F803421F080E23E
:101FC000800F883048F082E00E949F180E9400181D
:101FD00091E0D82ED92601C0D12CCC2EC2948FE00E
:101FE000C8228C2D90E0FC01E25AFF4F0C9484240F
:101FF0008C2F807FCF70882311F0C295C07FDD23A6
:1020000099F0CC2309F4A6C180E2800F883010F04B
:10201000011104C08C2F0E940A1803C08C2F0E944B
:102020001A180E94551896C1802F0E946D0FCC235C
:1020300009F4B5C180E2800F883010F0011104C0AE
:102040008C2F0E94101803C08C2F0E9420180E9411
:102050005518A5C18C2F807FCF70803211F0C295AA
:10206000C07F002319F00130C9F022C0DD2371F0D8
:10207000112341F0113031F40E943A188C2B0E9448
:1020800042188DC10E943A188C2B1DC0112319F0E3
:10209000113009F484C10E944B1825C0DD2321F0C2
:1020A000163008F07CC10EC0153008F078C11BC096
:1020B000DD2361F0112331F0F701858180FF4AC1F2
:1020C0008F7085838C2F0E94B40F69C1112359F042
:1020D000093309F050C1FFEF27EE83E0F1502040B3
:1020E0008040E1F746C18C2F0E94BB0F58C1DD2311
:1020F000F9F0053F51F0063F71F0043FA9F48091DB
:102100004E0290914F0281600BC080914E029091DF
:102110004F02826005C080914E0290914F02846010
:1021200090934F0280934E02802F0E94971B1EC0F7
:10213000053F51F0063F71F0043FA9F480914E0233
:1021400090914F028E7F0BC080914E0290914F0272
:102150008D7F05C080914E0290914F028B7F9093AE
:102160004F0280934E02802F0E94FF1B0E94841C0E
:102170001EC18C2F837009F045C0D11114C1402FAE
:10218000429546954770440F440F602F6F70862F1D
:1021900090E0A0E0B0E0042E04C0880F991FAA1FB1
:1021A000BB1F0A94D2F704FF10C00FE010E020E03C
:1021B00030E004C0000F111F221F331F4A95D2F7D1
:1021C000009510952095309503C000E010E098012F
:1021D000C695C695C370BC01CD01602B712B822BB7
:1021E000932BC23049F058F4C13019F00E944516C3
:1021F000DAC00E943316D7C00E945716D4C00E947E
:102200003116D1C0DD2319F08C2F817001C0869565
:10221000882309F4C8C0402F429546954770440F63
:10222000440F602F6F70862F90E0A0E0B0E0042E86
:1022300004C0880F991FAA1FBB1F0A94D2F704FF7E
:1022400010C00FE010E020E030E004C0000F111FCC
:10225000221F331F4A95D2F700951095209530958F
:1022600003C000E010E09801C695C695C370BC019C
:10227000CD01602B712B822B932BC23049F058F487
:10228000C13019F00E940A178EC00E94F8168BC048
:102290000E941C1788C00E946B1685C0CF70DD237A
:1022A00039F08C2F0E949116802F0E94B40F7BC0B2
:1022B000802F0E94BB0F8C2F0E94B21674C0023F69
:1022C00001F128F4003F41F0013FA1F03FC0033F7E
:1022D000F9F0043F39F13AC0DD2341F0153008F040
:1022E0005EC08C2F8F710E94D71659C0163008F02F
:1022F00056C0F7CFDD2339F08C2F8F710E949116D5
:102300004EC0DD23C9F38C2F8F710E94B21647C0D7
:10231000DD2329F08C2F8F710E947C1640C00E9413
:1023200077163DC0DD2349F0CF718C2F0E949116A6
:1023300063E08C2F0E948A1832C081E00E949F18AF
:10234000123068F182E00E949F1829C0DD2331F02D
:10235000112391F2802F0E94320F21C0112399F294
:10236000093349F49FEFE7EEF3E09150E040F0408D
:10237000E1F700C00000802F0E946D0F10C04C2FAD
:102380004F70602FC7010E94D6090E94A2150FC08E
:102390004C2F4F70602FC7010E94D90908C088EFE9
:1023A0008C0D843020F40E94E60D0E948009DD200F
:1023B000C9F00E94FC1780FD15C0F70112820E942F
:1023C000F6170E949116C7010E9413120E94F61779
:1023D000DF91CF911F910F91FF90EF90DF90CF9001
:1023E0000C94B216DF91CF911F910F91FF90EF9057
:1023F000DF90CF9008950F931F93CF93DF93EC015D
:10240000688179818A810E94D3178C010E942E17DE
:102410000E941F16B801CE010E94C20FDF91CF911A
:102420001F910F910895CF93DF93EC0198818981DB
:102430002B813C81232B31F08F3F31F481E09F3F92
:1024400019F403C081E001C080E080FD19C0CE0115
:102450000E94990981110CC00E940018882381F004
:102460008A81882369F082E0DF91CF910C949F18D4
:10247000CE010E94FB11CE01DF91CF910C94A608F2
:10248000DF91CF9108950E9427180E9437180E946B
:1024900055180E94AE1D0C94841C80911C019091D3
:1024A0001D010E94101A0C9443120E9417180C94DC
:1024B0004D12E92FE295EF704E2F50E0FA0132975E
:1024C000EE30F105B0F4E259FF4F0C948424803FC4
:1024D00091F018F4883E68F40EC0843F51F40BC0AC
:1024E000883E48F0813F29F406C093FB882780F995
:1024F000089580E0089581E008950E94C8170E9421
:1025000059120895CF93DF9300D000D01F92CDB71A
:10251000DEB70F900F900F900F900F90DF91CF913B
:102520000895CF93DF9300D000D000D0CDB7DEB7B1
:1025300026960FB6F894DEBF0FBECDBFDF91CF91C8
:1025400008951F93CF93DF93C091840116E080918B
:102550008501C81799F0D0E01C9FF0011D9FF00D78
:102560001124EA57FE4F4081518162817381848139
:1025700095810E9491122196C770E9CFDF91CF918A
:102580001F9108954091B6015091B7016091B80133
:102590007091B9018091BA019091BB010C94911294
:1025A0000F931F93CF93DF938091BB0182958F7020
:1025B00009F05DC08091B801882309F458C080916A
:1025C0008401109185016091B6017091B701C091AD
:1025D000B901D091BA0191E06F3F09F090E0292F45
:1025E00006E0811709F443C0209721F07F3F21F0D6
:1025F00030E003C031E001C0322F90E030FD34C044
:10260000089FF001099FF00D1124DF01AA57BE4F6A
:1026100011963C911197371327C03C91361324C073
:1026200012963C91129731111FC013964D915C91F7
:1026300014974C1B5D0B44365105B0F48091BB01DF
:102640008F7080618093BB01E557FE4F80818F7052
:102650008061808386EB91E00E941312DF91CF911D
:102660001F910F910C94A11201968770BACFDF9140
:10267000CF911F910F9108959F92AF92BF92CF92E9
:10268000DF92EF92FF920F931F93CF93DF93CDB71B
:10269000DEB761970FB6F894DEBF0FBECDBF8C01D9
:1026A00085E0F801DE011D9601900D928A95E1F713
:1026B000F80140815181E2809091B6016091B701AB
:1026C0002091B9013091BA012115310531F06F3FE8
:1026D00031F481E09F3F19F403C081E001C080E044
:1026E000F82FF1709F2E80FD2CC1F801A380B480DB
:1026F00086EBC82E81E0D82EF090B801F501E21BE0
:10270000F30BFF2009F4EBC08091BB01E436F10527
:1027100008F0A7C0282F207F09F052C0561313C01D
:10272000491311C0FE2CE1100EC08F7080618093A0
:10273000BB010E94C212C6010E9413128091BB010C
:10274000F80185833EC1AB2831F05F3F31F481E071
:102750004F3F19F403C081E001C080E080FD03C059
:1027600081E08E2502C080E090E0F82FF170FF2E0E
:1027700080FF1CC0809184012091850136E0821782
:1027800009F4FDC090E0389FF001399FF00D11244D
:10279000EA57FE4F6181561306C06081461303C09D
:1027A0006281E61203C001968770E9CFFE2CEE200D
:1027B00009F407C18091BB0181608093BB0166C0B1
:1027C000561312C0491310C0E1100EC0F8018583E2
:1027D000C8010E94131286E0F801A6EBB1E0019057
:1027E0000D928A95E1F7C8C04D875E878D859E85DD
:1027F0000E947D12882379F1EE2069F12091BB01BE
:10280000822F82958F7090E0029774F08091B601CC
:102810009091B70198878F831986BB86AA862C87EB
:10282000CE0107960E94131286E0F801A6EBB1E0F4
:1028300001900D928A95E1F70E94D0120E94C21277
:102840000DC0561729F14D875E878D859E850E94A4
:102850007D1281112CC0C8010E941312FF24F39431
:10286000B0C0282F207F69F77A2DB98AA88A6E2DEB
:1028700089890E94821286EB91E00E94131286E001
:10288000F60111928A95E9F70E94C212F12C99C0C3
:102890004913D9CFE110D7CFF8018583C8010E9431
:1028A000131286E0F60111928A95E9F78AC0EE20AC
:1028B00091F22091BB01822F82958F7090E0029758
:1028C0000CF4B2CF8091B6019091B7019A838983BD
:1028D0001B82BD82AC822E83CE010196A3CFE4364B
:1028E000F10510F5FE2CEE2009F4B5CF56130BC000
:1028F000491309C086E0F801A6EBB1E001900D9202
:102900008A95E1F75EC04D875E878D859E850E9422
:102910007D12811189CF8091BB0181608093BB01C1
:10292000C8010E9413124DC07A2DB98AA88A6E2D53
:1029300089890E94821286E0F60111928A95E9F750
:102940001BC0EE2009F487CF4D875E878D859E855D
:102950000E947D12F82E882309F47DCF86E0F801CD
:10296000A6EBB1E001900D928A95E1F786EB91E03C
:102970000E942C0F0E94D0120E94C21222C04D87CA
:102980005E878D859E850E94C817292F22952F70FE
:10299000223028F49F7039F0811105C00BC024301B
:1029A00028F49F7049F4805E883020F0C8010E94AE
:1029B00013129F2CF92C05C0F8019581907F99F78F
:1029C000F9CF8F2D61960FB6F894DEBF0FBECDBF45
:1029D000DF91CF911F910F91FF90EF90DF90CF90FB
:1029E000BF90AF909F9008951F93CF93DF93CDB783
:1029F000DEB72C970FB6F894DEBF0FBECDBF4F8366
:102A0000588769877A878B879C87CE0107960E94B3
:102A10003C138823D1F09F8188852A853B85232B11
:102A200031F08F3F31F481E09F3F19F403C081E022
:102A300001C080E080FD47C04F81588569857A8557
:102A40008B859C850E9491123EC086E0FE013796E0
:102A5000DE01119601900D928A95E1F7FF81E885DC
:102A60006A857B856115710531F0EF3F31F481E0B6
:102A7000FF3F19F403C081E001C080E080FD23C066
:102A80002091850130E0C901019687709927409116
:102A9000840150E084179507F1F1F983EA837D837F
:102AA0006C8396E0929FD001939FB00D1124AA579A
:102AB000BE4FFE01319601900D929A95E1F78093F9
:102AC00085010E94A11216E08091840190918501F8
:102AD000891771F1189FC00111248A579E4F0E94D7
:102AE0003C13882329F1E09184011E9FF0011124F9
:102AF000EA57FE4F408151816281738184819581C3
:102B00000E9491128091840190E00196877099272C
:102B100080938401D9CF0E945512109285011092A2
:102B20008401E6EBF1E086E0DF011D928A95E9F78A
:102B30002C960FB6F894DEBF0FBECDBFDF91CF91BC
:102B40001F910895EF92FF920F931F93CF93DF93FE
:102B50008C01892B09F46CC0F12CEE24E394E8017C
:102B60002196F8018491843740F4843008F051C0F4
:102B7000813081F0823019F15BC0853709F444C09F
:102B8000A8F19CE7980F903708F052C08F770E9409
:102B90006D0F41C00E5F1F4FFE01849190E2980FB0
:102BA000983050F48770FE2D01C0FF0F8A95EAF728
:102BB0008F2F0E942A1814C00E94320F2DC00E5F62
:102BC0001F4FFE01849190E2980F983060F4877057
:102BD000FE2D01C0FF0F8A95EAF78F2F0E94301853
:102BE0000E94551819C00E946D0F16C00E5F1F4F2E
:102BF000FE01C491CC2381F08FE99FE00197F1F7AA
:102C000000C00000C150F6CF0E5F1F4FFE01F490D0
:102C100003C00E94320F8E018F2D882309F49FCFAD
:102C2000EFE9FFE03197F1F700C000008150F5CFE8
:102C3000DF91CF911F910F91FF90EF90089508952C
:102C400008950C9420160C9421160E94231660936C
:102C5000F2017093F3018093F4019093F5010C94C9
:102C600043120C9425160F931F930091F2011091BB
:102C7000F3012091F4013091F501602B712B822B2F
:102C8000932B1F910F910C9425160F931F93009176
:102C9000F2011091F3012091F4013091F5016023CC
:102CA0007123822393231F910F910C9425160F9368
:102CB0001F930091F2011091F3012091F4013091E2
:102CC000F50160277127822793271F910F910C949C
:102CD00025160C9420160E9469166093EE017093DD
:102CE000EF018093F0019093F1010C94431260E0A6
:102CF00070E0CB010C946B160F931F9341E050E0F2
:102D000060E070E08A019B0104C0000F111F221FC8
:102D1000331F8A95D2F7C901B8011F910F910C9406
:102D20006B160F931F9341E050E060E070E004C029
:102D3000440F551F661F771F8A95D2F78091EE01C9
:102D40009091EF01A091F001B091F1018A019B01F6
:102D5000082B192B2A2B3B2BC901B8011F910F916E
:102D60000C946B160F931F9341E050E060E070E00D
:102D700004C0440F551F661F771F8A95D2F74095F0
:102D80005095609570958091EE019091EF01A09122
:102D9000F001B091F1018A019B01082319232A2334
:102DA0003B23C901B8011F910F910C946B160F932F
:102DB0001F9341E050E060E070E004C0440F551FF5
:102DC000661F771F8A95D2F78091EE019091EF01EF
:102DD000A091F001B091F1018A019B010827192708
:102DE0002A273B27C901B8011F910F910C946B163C
:102DF0000F931F930091EE011091EF012091F001CC
:102E00003091F101602B712B822B932B1F910F912D
:102E10000C946B160F931F930091EE011091EF012C
:102E20002091F0013091F1016023712382239323DB
:102E30001F910F910C946B160F931F930091EE014D
:102E40001091EF012091F0013091F101602771277D
:102E5000822793271F910F910C946B16089528E0F9
:102E6000929F800D1124E82FE695E695E6958770F0
:102E700051E001C0550F8A95EAF785E0E89FF0011F
:102E80001124E454FE4F20E030E070E04081CB019B
:102E9000022E02C0969587950A94E2F7817081957B
:102EA00084278523842781932F5F3F4F2530310569
:102EB00069F7089528E0929F800D1124682F669588
:102EC00066956695982F977085E0689FB0011124EC
:102ED00040E050E080E0FB01E40FF51FE454FE4FBA
:102EE000208130E0092E02C0369527950A94E2F73A
:102EF00021703327042E01C0220F0A94EAF7822B97
:102F00004F5F5F4F4530510531F70895BF92CF9223
:102F1000DF92EF92FF920F931F93CF93DF938C0179
:102F2000C090EE01D090EF01E090F001F090F1013F
:102F30008091F2019091F301A091F401B091F5011B
:102F4000C82AD92AEA2AFB2ACFE1D0E0D701C60154
:102F50000C2E04C0B695A795979587950A94D2F73D
:102F600080FD04C0219790F7B12C07C0BC2EB8019A
:102F70008C2F0E94F7090197A9F38B2DDF91CF9138
:102F80001F910F91FF90EF90DF90CF90BF90089529
:102F9000CF93DF93EC010E948617BE010E94F709D0
:102FA000DF91CF9108951F93CF93DF93EB01909121
:102FB0008301992321F0CB010E94C81713C08823F5
:102FC00049F0CB010E948617182F682FCE010E946E
:102FD0002F1704C0CB010E945A17182FBE01812F52
:102FE0000E94F709DF91CF911F9108958091F6011A
:102FF00085958595859508958091F601877008954A
:103000009091F601977081E009F480E00895809135
:103010001A02089590911A02892B80931A0208953A
:10302000809590911A02892380931A020895109234
:103030001A02089590911902892B8093190208951C
:103040008095909119028923809319020895109216
:103050001902089590911802892B809318020895FF
:1030600080959091180289238093180208951092F8
:10307000180208958091F701089508950C943D1861
:103080000C943E189091F701981721F08093F70166
:103090000C94401808958091F701882329F010922C
:1030A000F70180E00C9440180895E0911C01F09124
:1030B0001D0180911A028083E0911C01F0911D0195
:1030C000908180911902892B8083E0911C01F091FD
:1030D0001D01908180911802892B80838091F701D6
:1030E000882381F0E0911C01F0911D019081892BD2
:1030F000808380911C0190911D010E9464198111AF
:103100000E944B1880911C0190911D010C94F20DAE
:103110000C943D1898E0899F90011124262B209350
:10312000F6010E9491168091F60185958595859509
:103130000C9488181092F60180E00C948818209165
:10314000F601809582238093F601982F977079F489
:1031500030E0482F082E000C550B2417350739F0A6
:103160008595859585950E94B2160C949A180895B8
:1031700080E090E00E94B32421E08C3E9E4F09F055
:1031800020E0822F089582E090E00C94AB2483E04D
:1031900090E00C94AB24682F83E090E00C94B92469
:1031A000CF9384E090E00E94AB24C82F81E290E0AE
:1031B0000E94AB242C2F30E0A901582BCA01CF91DB
:1031C0000895CF93C92F682F84E090E00E94B9241E
:1031D0006C2F81E290E0CF910C94B924AB01BC013B
:1031E0008FE090E00C94CB24AB01BC0183E190E034
:1031F0000C94CB2460E070E0CB010C94F41860E0F8
:1032000070E0CB010E94EE180C94FA186CEE7EEF81
:1032100080E090E00E94D72460E082E090E00E948D
:10322000B92460E083E090E00E94B9241092F2019A
:103230001092F3011092F4011092F50160E084E025
:1032400090E00E94B92460E081E290E00E94B924FD
:1032500060E085E090E00E94B92460E086E090E0C4
:103260000E94B9246FEF87E090E00E94B92440E00B
:1032700050E0BA0188E090E00E94CB2460E08DE04D
:1032800090E00E94B92440E050E0BA0188E190E06B
:103290000E94CB2460E087E190E00E94B92440E0E6
:1032A00050E0BA018CE190E00E94CB2460E080E223
:1032B00090E00E94B9240C94FF180C940619682F12
:1032C0008EE090E00C94B924FC013296809130019C
:1032D000882331F08091540287FF02C09EE101C033
:1032E00096E080E0915028F021912223D9F38F5F5E
:1032F000F9CF0895662351F1209130012223E9F09E
:103300002091540227FF19C0462F469546954695B1
:103310004E31E0F4677021E030E002C0220F331F2D
:103320006A95E2F7FC01E40FF11D828190E0282309
:10333000392381E0232B69F409C0FC0132960896F9
:103340002191621729F0E817F907D1F780E0089575
:1033500081E008959C01FC0132969FEF80E041914D
:10336000461789F09F3F19F4411101C0982F8F5FD4
:103370008630A9F79F3F39F0F901E90FF11D97FD5C
:10338000FA956283089508959C012A5F3F4FFC01DE
:103390004281461301C01282019682179307B9F742
:1033A0000895262F2695269526952E3168F4FC0142
:1033B000E20FF11D677021E030E001C0220F6A9535
:1033C000EAF78281282B22830895262F26952695B9
:1033D00026952E3170F4FC01E20FF11D677021E09B
:1033E00030E001C0220F6A95EAF7209582812823F8
:1033F0002283089520913001222329F02091540244
:1034000027FD0C94D1190C94AA1920913001222384
:1034100029F02091540227FD0C94E5190C94C4194D
:1034200020913001FC013296222331F08091540228
:1034300087FF02C08EE101C086E0DF011D928A9500
:10344000E9F7089508950C94221A0C94221ACF9348
:103450000E94251A0E94A4060E94231AC0E08C2F05
:103460000E940407811104C0CF5FCA30C1F701C0B8
:1034700081E0CF9108950C94221A0C943B1A0E947B
:103480003D1A80915A02843049F110921C0220E4C6
:1034900088E190E00FB6F894A895809360000FBE85
:1034A0002093600080E00E9480090E943D1A83B74B
:1034B000817F846083BF83B7816083BF7894889560
:1034C00083B78E7F83BF0FB6F894A8958091600074
:1034D000886180936000109260000FBE08950C9484
:1034E000221A0E9455120E94E60D0E9480090C9437
:1034F0006F1A1F920F920FB60F9211248F939F9302
:10350000AF93BF9380911C02811113C08091500230
:1035100090915102A0915202B09153024196A11D87
:10352000B11D8093500290935102A0935202B09328
:103530005302BF91AF919F918F910F900FBE0F904B
:103540001F90189582E084BD93E095BD9AEF97BDDA
:1035500080936E0008952FB7F89480915002909157
:103560005102A0915202B09153022FBF08959C01C5
:103570004FB7F8948091500290915102A09152025D
:10358000B09153024FBF821B930B089578941F9202
:103590000F920FB60F9211248F939F93AF93BF9307
:1035A0008091500290915102A0915202B091530229
:1035B0000196A11DB11D8093500290935102A093DA
:1035C0005202B0935302BF91AF919F918F910F9090
:1035D0000FBE0F901F90189587E797E7909301080B
:1035E000809300089AE088E10FB6F894A89580933C
:1035F00060000FBE90936000FFCF0E94B818811149
:1036000002C00E945D190E94C31880931B020E9491
:10361000D01890935502809354020E94C718682FC7
:1036200070E080E090E00C9431168091240280FFDD
:103630000BC06091230185E0689FB001112475954E
:103640006795759567952BC081FF09C0609123012F
:1036500085E0689FB00111247595679520C082FFB1
:1036600007C06091230185E0689FB001112417C055
:10367000909123029923D1F060912201961788F747
:103680002091230185E0289F90011124929FA001A1
:10369000939F500D112470E0CA010E94702460387D
:1036A000710540F46115710519F406C065E070E01C
:1036B000862F08958FE7089581E008958091240270
:1036C00080FF08C060911F0170E075956795759542
:1036D000679521C081FF06C060911F0170E075955C
:1036E000679519C082FF04C060911F0170E010C08F
:1036F00090912302992399F060911E019617A0F7EB
:1037000080911F01899FC001112470E00E947024E4
:103710006038710540F46115710519F406C061E067
:1037200070E0862F08958FE7089581E00895803F27
:1037300021F40E94151B819504C0813F29F40E9449
:10374000151B809328020895823F21F40E94151BC7
:10375000819504C0833F29F40E94151B80932702A2
:103760000895893F19F40E945E1B05C08A3F31F419
:103770000E945E1B81958093290208958B3F21F45E
:103780000E945E1B819504C08C3F29F40E945E1B41
:1037900080932A020895843F21F48091260281605B
:1037A00017C0853F21F480912602826011C0863FB8
:1037B00021F48091260284600BC0873F21F4809120
:1037C0002602886005C0883F31F48091260280611E
:1037D0008093260208958D3F21F480912402816018
:1037E0000BC08E3F21F480912402826005C08F3F80
:1037F00029F4809124028460809324020895803FFC
:1038000039F48091280287FF6CC01092280269C0A9
:10381000813F29F4809128021816BCF362C0909170
:103820002702823F29F497FF5CC01092270259C0FB
:10383000833F19F41916CCF354C0893F41F48091A9
:10384000290218160CF04DC0109229024AC08A3F76
:1038500029F48091290287FF44C0F6CF8B3F39F4C9
:1038600080912A0287FF3DC010922A023AC08C3F05
:1038700029F480912A021816BCF333C0843F21F446
:10388000809126028E7F17C0853F21F48091260209
:103890008D7F11C0863F21F4809126028B7F0BC063
:1038A000873F21F480912602877F05C0883F31F44D
:1038B000809126028F7E8093260213C08D3F21F4D3
:1038C000809124028E7F0BC08E3F21F480912402D0
:1038D0008D7F05C08F3F29F4809124028B7F8093D8
:1038E00024028091270281110EC08091280281114B
:1038F0000AC080912902811106C080912A0281119B
:1039000002C010922302089585E292E00E940C0EFC
:103910000E94AB1A90932202809321020895CF93C4
:10392000DF9300D000D000D0CDB7DEB786E0E5E26F
:10393000F2E0DE01119601900D928A95E1F78091F7
:103940002702811105C080912802882309F47AC0DA
:1039500080911F02909120020E94B71AAC019091B1
:103960002302992339F02091240130E024173507F0
:1039700058F068C0209125018AE0289F9001112409
:103980002417350718F05EC09F3F19F09F5F909392
:1039900023021092290210922A02809127021816FF
:1039A00024F40E94151B809327028091270287FF31
:1039B00005C00E94151B81958093270280912802E3
:1039C000181624F40E94151B809328028091280267
:1039D00087FF05C00E94151B8195809328023091B6
:1039E00027023323E1F0209128022223C1F045EB86
:1039F0003403C0011124992319F09093270203C0C6
:103A000081E08093270235EB2303C0011124992321
:103A100019F09093280203C081E0809328020E944D
:103A2000841C809121029091220290932002809325
:103A30001F0286E0FE013196A5E2B2E001900D92F0
:103A40008A95E1F780912902811105C080912A02AF
:103A5000882309F47AC080911D0290911E020E9471
:103A6000B71AAC0190912302992339F020912001DB
:103A700030E02417350758F068C0209121018AE012
:103A8000289F900111242417350718F05EC09F3F2E
:103A900019F09F5F90932302109227021092280240
:103AA00080912902181624F40E945E1B809329023B
:103AB0008091290287FF05C00E945E1B819580933B
:103AC000290280912A02181624F40E945E1B80931A
:103AD0002A0280912A0287FF05C00E945E1B819501
:103AE00080932A02309129023323E1F020912A02A7
:103AF0002223C1F045EB3403C0011124992319F0AE
:103B00009093290203C081E08093290235EB2303BF
:103B1000C0011124992319F090932A0203C081E077
:103B200080932A020E94841C80912102909122029B
:103B300090931E0280931D0286E0FE013196A5E25D
:103B4000B2E001900D928A95E1F726960FB6F894AF
:103B5000DEBF0FBECDBFDF91CF910895E5E2F2E069
:103B600086E0DF011D928A95E9F7109223021092F8
:103B70002402089580914B0208950895CF93DF9316
:103B8000EC010E94B51F823011F08430F9F482E01C
:103B90008093E9008FEF9091E800815095FD06C079
:103BA00095ED9A95F1F700008111F5CF8091E8002D
:103BB00085FF0CC040E050E066E070E0CE010E945E
:103BC000D21F8091E8008E778093E800DF91CF913B
:103BD0000895CF93DF93EC010E94B51F823011F05E
:103BE0008430D9F580913001882339F080915402D6
:103BF00087FF03C060E282E002C068E081E080935A
:103C0000E9008FEF9091E800815095FD06C095ED99
:103C10009A95F1F700008111F5CF8091E80085FFBA
:103C20001CC080913001811105C040E050E068E087
:103C300070E003C070E040E050E0CE010E94D21F6F
:103C40008091E8008E778093E80080E2FE01ABE28D
:103C5000B2E001900D928A95E1F7DF91CF9108953E
:103C6000089580915902811109C00E9463210E9428
:103C7000C0218091E20084608093E2000895109258
:103C800059020895089508950C94711A42E061EC68
:103C900081E00E94DC2042E261EC82E00C94DC20B6
:103CA00080915C02833009F460C030F4813071F09F
:103CB000823009F499C008958A3009F485C08B30A8
:103CC00009F46BC0893009F0A7C020C080915B0265
:103CD000813A09F0A1C08091E800877F8093E800D5
:103CE00080915F0290916002892B21F460E28BE267
:103CF00092E003C060E080E090E070E00E941D2050
:103D00008091E8008B778093E800089580915B02B2
:103D1000813209F081C080915F0290916002029728
:103D200008F07AC08091E800877F8093E800809156
:103D3000E80082FD05C080915A028111F8CF6CC065
:103D40002091F3008091F20090E0922B029729F4E9
:103D50008091F1008B7F813021F48091F10080937C
:103D60004B028091E8008B7753C080915B02813ACF
:103D700009F052C080915F0290916002892B09F096
:103D80004BC08091E800877F8093E8008091E80035
:103D900080FFFCCF8091300136C080915B02813280
:103DA000D9F580915F0290916002892BA9F58091ED
:103DB000E800877F8093E8000E94112180915D02D6
:103DC000809330010C94551280915B02813221F571
:103DD0008091E800877F8093E8000E941121809104
:103DE0005E0280934C02089580915B02813AA1F4B7
:103DF0008091E800877F8093E8008091E80080FF51
:103E0000FCCF80914C028093F1008091E8008E7786
:103E10008093E8000C941121089584B7877F84BFB4
:103E20000FB6F894A8958091600088618093600037
:103E3000109260000FBE90E080E80FB6F894809377
:103E40006100909361000FBE0E94540E0E94632196
:103E50000E94C0218091E20084608093E200789407
:103E60000E9455240E945E0E86E291E00E94E10DC0
:103E700080915A02853069F40E943F1A809158025D
:103E80008823B1F30E94271A882391F30E94BC1F54
:103E9000EFCF0E94660EECCF0C944E1F292F3327D4
:103EA00023303105C9F060F42130310581F0223032
:103EB000310509F04AC08BE390E022EA35E049C0C1
:103EC0002132310511F12232310579F13EC082E112
:103ED00090E02DED35E03DC099278130910561F0EE
:103EE00040F08230910559F0039779F5ECE7F5E061
:103EF00008C0EEE9F5E005C0E2E9F5E002C0E2E85D
:103F0000F5E0849190E09F0124C06115710541F0B6
:103F100061307105D1F489E090E02DEC35E019C0F5
:103F200089E090E024EB35E014C06115710541F0A3
:103F30006130710551F48AE890E02FEE35E009C058
:103F400080E490E029E736E004C080E090E020E0E3
:103F500030E0FA0131832083089580915A02843041
:103F600011F081E0089582E0089580914D02811161
:103F700002C00C94AD1F089580E189BD82E189BD26
:103F800009B400FEFDCF8091D8008F7D8093D800CA
:103F90008091E00082608093E0008091E00081FDEC
:103FA000FCCF0895CF92DF92EF92FF920F931F9371
:103FB000CF93DF93EC018B017A010E9430218111B4
:103FC00033C0E114F10439F0F70180819181081BBD
:103FD000190BC80FD91FC12CD12C0115110519F1CE
:103FE0008091E80085FD16C08091E8008E7780936F
:103FF000E800E114F10449F0F70180819181C80ED5
:10400000D91ED182C08285E00FC00E943021882352
:1040100021F30AC089918093F10001501109FFEF4B
:10402000CF1ADF0ADACF80E0DF91CF911F910F9195
:10403000FF90EF90DF90CF90089520916102309132
:1040400062022617370748F06115710539F420918F
:10405000E8002E772093E80001C0B901FC0120E0C0
:104060006115710579F180915A028823F1F185304B
:10407000F1F18091E80083FD3CC08091E80082FD71
:104080002EC08091E80080FFEBCF2091F30080915B
:10409000F20090E0922B6115710551F08830910586
:1040A00038F421912093F100615071090196F3CF0A
:1040B00021E0089709F020E08091E8008E77809356
:1040C000E800CECF2111CFCF0AC080915A028823B9
:1040D00061F0853061F08091E80083FD0AC0809135
:1040E000E80082FFF2CF80E0089582E0089583E047
:1040F000089581E0089520916102309162022617AF
:10410000370748F06115710539F42091E8002E77E2
:104110002093E80001C0B901FC0120E061157105A0
:1041200091F180915A02882309F440C0853009F446
:104130003FC08091E80083FD3DC08091E80082FD92
:104140002FC08091E80080FFE9CF2091F30080919B
:10415000F20090E0922B6115710559F088309105BD
:1041600040F424912093F100319661507109019639
:10417000F2CF21E0089709F020E08091E8008E77E7
:104180008093E800CBCF2111CCCF0AC080915A0296
:10419000882361F0853061F08091E80083FD0AC0DA
:1041A0008091E80082FFF2CF80E0089582E00895D8
:1041B00083E0089581E00895982F973068F59093F3
:1041C000E900981739F07091EC002091ED005091C2
:1041D000F00003C0242F762F50E021FD02C09F5F26
:1041E000ECCF3091EB003E7F3093EB003091ED004F
:1041F0003D7F3093ED003091EB0031603093EB0068
:104200007093EC002093ED005093F0002091EE00AD
:1042100027FDE5CF80E008958F708093E90081E06D
:10422000089580915B0287FF11C08091E80082FDB4
:1042300005C080915A028111F8CF11C08091E80029
:104240008B770BC080915A02882349F08091E80057
:1042500080FFF8CF8091E8008E778093E800089582
:104260002091E4003091E50095E64091EC00842F28
:10427000817040FF23C08091E80080FD1DC08091C7
:104280005A02882399F0853099F08091EB0085FDE2
:1042900011C04091E4005091E5002417350729F33F
:1042A000915011F09A01E1CF84E0089582E00895E1
:1042B00083E0089581E0089580E008954091E8004A
:1042C00042FFDDCF08950E94D1210E94D921E0EE66
:1042D000F0E0808181608083E8EDF0E080818F777D
:1042E000808319BCA7EDB0E08C918E7F8C93808188
:1042F0008F7E80831092590208950F931F93CF935E
:10430000DF930E94D1210E94D921C8EDD0E088819D
:104310008F77888388818068888388818F7D888370
:1043200019BC10925A021092560210925802109222
:10433000570200EE10E0F80180818B7F8083888136
:104340008160888342E060E080E00E94DC20E1EE52
:10435000F0E080818E7F8083E2EEF0E080818160FA
:104360008083808188608083F80180818E7F808354
:10437000888180618883DF91CF911F910F9108958B
:10438000E8EDF0E080818F7E8083E7EDF0E08081D2
:104390008160808384E082BF81E0809359020C9425
:1043A0007D21E8EDF0E080818E7F80831092E20035
:1043B00008951092DA001092E10008951F920F9272
:1043C0000FB60F9211242F933F934F935F936F93E8
:1043D0007F938F939F93AF93BF93EF93FF938091BE
:1043E000E10082FF0BC08091E20082FF07C0809154
:1043F000E1008B7F8093E1000E9454248091DA00D9
:1044000080FF1FC08091D80080FF1BC08091DA0020
:104410008E7F8093DA008091D90080FF0DC080E10B
:1044200089BD82E189BD09B400FEFDCF81E08093A2
:104430005A020E94311E05C019BC10925A020E94F5
:104440003F1E8091E10080FF19C08091E20080FF53
:1044500015C08091E2008E7F8093E2008091E2009F
:1044600080618093E2008091D80080628093D800C0
:1044700019BC85E080935A020E94431E8091E1009E
:1044800084FF30C08091E20084FF2CC080E189BDB0
:1044900082E189BD09B400FEFDCF8091D8008F7DF7
:1044A0008093D8008091E1008F7E8093E10080911D
:1044B000E2008F7E8093E2008091E2008160809331
:1044C000E20080915602882311F084E007C08091B9
:1044D000E30087FD02C081E001C083E080935A02BF
:1044E0000E94441E8091E10083FF29C08091E20078
:1044F00083FF25C08091E100877F8093E10082E007
:1045000080935A02109256028091E1008E7F809330
:10451000E1008091E2008E7F8093E2008091E200D2
:1045200080618093E20042E060E080E00E94DC2055
:104530008091F00088608093F0000E94421EFF91FD
:10454000EF91BF91AF919F918F917F916F915F910B
:104550004F913F912F910F900FBE0F901F90189584
:104560001F920F920FB60F9211242F933F934F93E8
:104570005F936F937F938F939F93AF93BF93CF93EB
:10458000DF93EF93FF93C091E900CF708091EC002F
:10459000D82FD17080FDD0E81092E9008091F00012
:1045A000877F8093F00078940E94F4221092E900B3
:1045B0008091F00088608093F000CD2BCF70C09385
:1045C000E900FF91EF91DF91CF91BF91AF919F9162
:1045D0008F917F916F915F914F913F912F910F90AC
:1045E0000FBE0F901F9018951F93CF93DF93CDB7F9
:1045F000DEB7AA970FB6F894DEBF0FBECDBFEBE5CE
:10460000F2E08091F100819322E0E336F207C9F7EE
:104610000E94501E8091E80083FF2EC180915B02B2
:1046200090915C02492F50E04A30510508F024C1B6
:10463000FA01E458FF4F0C948424803821F082382A
:1046400009F01AC108C0809157029091580299232D
:1046500089F082600FC080915F028F70873008F010
:104660000BC18093E9008091EB0085FB882780F9DE
:104670001092E9009091E800977F9093E800809372
:10468000F1001092F100D1C0282F2D7F09F0F4C065
:10469000882319F0823061F0EFC080915D02813093
:1046A00009F0EAC0933009F080E0809358022EC0F0
:1046B00080915D0281112AC080915F028F702FEF7F
:1046C000280F263008F0D8C08093E9002091EB0035
:1046D00020FF1CC0933021F48091EB00806214C055
:1046E0009091EB0090619093EB0021E030E0A90104
:1046F00002C0440F551F8A95E2F74093EA001092DA
:10470000EA008091EB0088608093EB001092E90052
:104710008091E800877F8093E8000E941121ACC05F
:104720008111AAC010915D021F778091E30080780B
:10473000812B8093E3008091E800877F8093E800DD
:104740000E9411218091E80080FFFCCF8091E3005E
:1047500080688093E300111102C082E001C083E011
:1047600080935A0289C08058823008F085C08091B9
:104770005D0290915E028C3D53E0950779F583E0F0
:104780008A838AE289834FB7F894DE01139620E08A
:104790003EE051E2E32FF0E050935700E49120FF18
:1047A00003C0E295EF703F5FEF708E2F90E0EA302C
:1047B00010F0C79601C0C0968D939D932F5F243152
:1047C00049F74FBF8091E800877F8093E8006AE255
:1047D00070E0CE0101960E941D2016C060915F021C
:1047E00070916002AE014F5F5F4F0E944C1FBC0191
:1047F000892B09F441C09091E800977F9093E800DD
:1048000089819A810E947B208091E8008B77809338
:10481000E80032C0803881F58091E800877F80937E
:10482000E800809156028093F1008091E8008E7735
:1048300072CF811121C080915D0290915E02992713
:104840000297D4F48091E800877F8093E8008091FC
:104850005D02809356020E941121809156028111BF
:1048600006C08091E30087FD02C081E001C084E0C2
:1048700080935A020E94461E8091E80083FF0AC07E
:104880008091E800877F8093E8008091EB00806250
:104890008093EB00AA960FB6F894DEBF0FBECDBF93
:1048A000DF91CF911F9108950895CF9380915A027F
:1048B0008823A1F0C091E900CF709091EC00892F7E
:1048C000817090FD80E8C82B1092E9008091E8008B
:1048D00083FD0E94F422CF70C093E900CF91089528
:1048E00097FB072E16F4009407D077FD09D00E949D
:1048F0008A2407FC05D03EF4909581959F4F08953A
:10490000709561957F4F0895EE0FFF1F0590F4910C
:10491000E02D0994AA1BBB1B51E107C0AA1FBB1FB6
:10492000A617B70710F0A61BB70B881F991F5A953B
:10493000A9F780959095BC01CD010895FB01DC019C
:1049400004C08D910190801921F441505040C8F766
:10495000881B990B0895F999FECF92BD81BDF89AF5
:10496000992780B50895A8E1B0E042E050E00C94AA
:10497000DF24262FF999FECF92BD81BDF89A0197C9
:1049800000B4021639F01FBA20BD0FB6F894FA9A97
:10499000F99A0FBE08950396272F0E94BA240E9409
:1049A000B924252F0E94BA24242F0C94BA240196EE
:1049B000272F0E94BA240C94B924DC01CB01FC01FE
:1049C000F999FECF06C0F2BDE1BDF89A319600B468
:0E49D0000D9241505040B8F70895F894FFCF73
:1049DE0005016101000000015F0161010562010135
:1049EE005F016001000000056701FFFFF801280864
:1049FE00641E140A321EBA1DE91DBE1D301EBD1DD9
:104A0E0001F4F5F6F731333236946697C63400006A
:044A1E000000000094
:00000001FF
